{
  "contractName": "Leave",
  "abi": [
    {
      "constant": true,
      "inputs": [],
      "name": "max_leave",
      "outputs": [
        {
          "name": "",
          "type": "uint64"
        }
      ],
      "payable": false,
      "stateMutability": "view",
      "type": "function",
      "signature": "0x2fa0d51d"
    },
    {
      "constant": true,
      "inputs": [],
      "name": "admindone",
      "outputs": [
        {
          "name": "",
          "type": "bool"
        }
      ],
      "payable": false,
      "stateMutability": "view",
      "type": "function",
      "signature": "0x35d65e46"
    },
    {
      "constant": true,
      "inputs": [],
      "name": "admin",
      "outputs": [
        {
          "name": "",
          "type": "address"
        }
      ],
      "payable": false,
      "stateMutability": "view",
      "type": "function",
      "signature": "0xf851a440"
    },
    {
      "constant": false,
      "inputs": [
        {
          "name": "nname",
          "type": "string"
        },
        {
          "name": "idd",
          "type": "string"
        }
      ],
      "name": "makeadmin",
      "outputs": [],
      "payable": false,
      "stateMutability": "nonpayable",
      "type": "function",
      "signature": "0xd0358b4a"
    },
    {
      "constant": false,
      "inputs": [
        {
          "name": "count",
          "type": "uint64"
        }
      ],
      "name": "setmaxleave",
      "outputs": [],
      "payable": false,
      "stateMutability": "nonpayable",
      "type": "function",
      "signature": "0x834c70cc"
    },
    {
      "constant": false,
      "inputs": [
        {
          "name": "toPerson",
          "type": "address"
        },
        {
          "name": "nname",
          "type": "string"
        },
        {
          "name": "idd",
          "type": "string"
        }
      ],
      "name": "register",
      "outputs": [],
      "payable": false,
      "stateMutability": "nonpayable",
      "type": "function",
      "signature": "0x8d59cc02"
    },
    {
      "constant": true,
      "inputs": [],
      "name": "ask_available",
      "outputs": [
        {
          "name": "days_available",
          "type": "uint64"
        }
      ],
      "payable": false,
      "stateMutability": "view",
      "type": "function",
      "signature": "0xc6d20b67"
    },
    {
      "constant": false,
      "inputs": [
        {
          "name": "count_days",
          "type": "uint64"
        }
      ],
      "name": "ask_leave",
      "outputs": [
        {
          "name": "reply",
          "type": "int8"
        }
      ],
      "payable": false,
      "stateMutability": "nonpayable",
      "type": "function",
      "signature": "0xd84c1641"
    },
    {
      "constant": true,
      "inputs": [
        {
          "name": "idd",
          "type": "string"
        }
      ],
      "name": "details",
      "outputs": [
        {
          "name": "name",
          "type": "string"
        },
        {
          "name": "id",
          "type": "string"
        },
        {
          "name": "leave_count",
          "type": "uint64"
        }
      ],
      "payable": false,
      "stateMutability": "view",
      "type": "function",
      "signature": "0xa19556d4"
    },
    {
      "constant": true,
      "inputs": [
        {
          "name": "temp",
          "type": "address"
        }
      ],
      "name": "curdetails",
      "outputs": [
        {
          "name": "name",
          "type": "string"
        },
        {
          "name": "id",
          "type": "string"
        },
        {
          "name": "leave_count",
          "type": "uint64"
        }
      ],
      "payable": false,
      "stateMutability": "view",
      "type": "function",
      "signature": "0xe2c5f40f"
    },
    {
      "constant": false,
      "inputs": [
        {
          "name": "newadd",
          "type": "address"
        }
      ],
      "name": "changeadmin",
      "outputs": [],
      "payable": false,
      "stateMutability": "nonpayable",
      "type": "function",
      "signature": "0x26ea7ab8"
    }
  ],
  "bytecode": "0x608060405260146000806101000a81548167ffffffffffffffff021916908367ffffffffffffffff160217905550600080601c6101000a81548160ff02191690831515021790555034801561005357600080fd5b50611b5d806100636000396000f3fe6080604052600436106100af576000357c0100000000000000000000000000000000000000000000000000000000900463ffffffff16806326ea7ab8146100b45780632fa0d51d1461010557806335d65e4614610144578063834c70cc146101735780638d59cc02146101b8578063a19556d414610337578063c6d20b67146104ff578063d0358b4a1461053e578063d84c16411461069d578063e2c5f40f146106fc578063f851a4401461084d575b600080fd5b3480156100c057600080fd5b50610103600480360360208110156100d757600080fd5b81019080803573ffffffffffffffffffffffffffffffffffffffff1690602001909291905050506108a4565b005b34801561011157600080fd5b5061011a6109a3565b604051808267ffffffffffffffff1667ffffffffffffffff16815260200191505060405180910390f35b34801561015057600080fd5b506101596109bc565b604051808215151515815260200191505060405180910390f35b34801561017f57600080fd5b506101b66004803603602081101561019657600080fd5b81019080803567ffffffffffffffff1690602001909291905050506109cf565b005b3480156101c457600080fd5b50610335600480360360608110156101db57600080fd5b81019080803573ffffffffffffffffffffffffffffffffffffffff1690602001909291908035906020019064010000000081111561021857600080fd5b82018360208201111561022a57600080fd5b8035906020019184600183028401116401000000008311171561024c57600080fd5b91908080601f016020809104026020016040519081016040528093929190818152602001838380828437600081840152601f19601f820116905080830192505050505050509192919290803590602001906401000000008111156102af57600080fd5b8201836020820111156102c157600080fd5b803590602001918460018302840111640100000000831117156102e357600080fd5b91908080601f016020809104026020016040519081016040528093929190818152602001838380828437600081840152601f19601f820116905080830192505050505050509192919290505050610a56565b005b34801561034357600080fd5b506103fd6004803603602081101561035a57600080fd5b810190808035906020019064010000000081111561037757600080fd5b82018360208201111561038957600080fd5b803590602001918460018302840111640100000000831117156103ab57600080fd5b91908080601f016020809104026020016040519081016040528093929190818152602001838380828437600081840152601f19601f820116905080830192505050505050509192919290505050610d86565b6040518080602001806020018467ffffffffffffffff1667ffffffffffffffff168152602001838103835286818151815260200191508051906020019080838360005b8381101561045b578082015181840152602081019050610440565b50505050905090810190601f1680156104885780820380516001836020036101000a031916815260200191505b50838103825285818151815260200191508051906020019080838360005b838110156104c15780820151818401526020810190506104a6565b50505050905090810190601f1680156104ee5780820380516001836020036101000a031916815260200191505b509550505050505060405180910390f35b34801561050b57600080fd5b50610514611091565b604051808267ffffffffffffffff1667ffffffffffffffff16815260200191505060405180910390f35b34801561054a57600080fd5b5061069b6004803603604081101561056157600080fd5b810190808035906020019064010000000081111561057e57600080fd5b82018360208201111561059057600080fd5b803590602001918460018302840111640100000000831117156105b257600080fd5b91908080601f016020809104026020016040519081016040528093929190818152602001838380828437600081840152601f19601f8201169050808301925050505050505091929192908035906020019064010000000081111561061557600080fd5b82018360208201111561062757600080fd5b8035906020019184600183028401116401000000008311171561064957600080fd5b91908080601f016020809104026020016040519081016040528093929190818152602001838380828437600081840152601f19601f82011690508083019250505050505050919291929050505061116b565b005b3480156106a957600080fd5b506106e0600480360360208110156106c057600080fd5b81019080803567ffffffffffffffff169060200190929190505050611506565b604051808260000b60000b815260200191505060405180910390f35b34801561070857600080fd5b5061074b6004803603602081101561071f57600080fd5b81019080803573ffffffffffffffffffffffffffffffffffffffff169060200190929190505050611847565b6040518080602001806020018467ffffffffffffffff1667ffffffffffffffff168152602001838103835286818151815260200191508051906020019080838360005b838110156107a957808201518184015260208101905061078e565b50505050905090810190601f1680156107d65780820380516001836020036101000a031916815260200191505b50838103825285818151815260200191508051906020019080838360005b8381101561080f5780820151818401526020810190506107f4565b50505050905090810190601f16801561083c5780820380516001836020036101000a031916815260200191505b509550505050505060405180910390f35b34801561085957600080fd5b50610862611a66565b604051808273ffffffffffffffffffffffffffffffffffffffff1673ffffffffffffffffffffffffffffffffffffffff16815260200191505060405180910390f35b600060089054906101000a900473ffffffffffffffffffffffffffffffffffffffff1673ffffffffffffffffffffffffffffffffffffffff163373ffffffffffffffffffffffffffffffffffffffff1614151561090057600080fd5b60011515600260008373ffffffffffffffffffffffffffffffffffffffff1673ffffffffffffffffffffffffffffffffffffffff16815260200190815260200160002060009054906101000a900460ff16151514151561095f57600080fd5b80600060086101000a81548173ffffffffffffffffffffffffffffffffffffffff021916908373ffffffffffffffffffffffffffffffffffffffff16021790555050565b6000809054906101000a900467ffffffffffffffff1681565b6000601c9054906101000a900460ff1681565b600060089054906101000a900473ffffffffffffffffffffffffffffffffffffffff1673ffffffffffffffffffffffffffffffffffffffff163373ffffffffffffffffffffffffffffffffffffffff16141515610a2b57600080fd5b806000806101000a81548167ffffffffffffffff021916908367ffffffffffffffff16021790555050565b600060089054906101000a900473ffffffffffffffffffffffffffffffffffffffff1673ffffffffffffffffffffffffffffffffffffffff163373ffffffffffffffffffffffffffffffffffffffff16141580610b03575060011515600260008573ffffffffffffffffffffffffffffffffffffffff1673ffffffffffffffffffffffffffffffffffffffff16815260200190815260200160002060009054906101000a900460ff161515145b15610b0d57600080fd5b81600160008573ffffffffffffffffffffffffffffffffffffffff1673ffffffffffffffffffffffffffffffffffffffff1681526020019081526020016000206000019080519060200190610b63929190611a8c565b5080600160008573ffffffffffffffffffffffffffffffffffffffff1673ffffffffffffffffffffffffffffffffffffffff1681526020019081526020016000206001019080519060200190610bba929190611a8c565b5060018060008573ffffffffffffffffffffffffffffffffffffffff1673ffffffffffffffffffffffffffffffffffffffff16815260200190815260200160002060020160006101000a81548160ff0219169083151502179055506000600160008573ffffffffffffffffffffffffffffffffffffffff1673ffffffffffffffffffffffffffffffffffffffff16815260200190815260200160002060020160016101000a81548167ffffffffffffffff021916908367ffffffffffffffff1602179055506001600260008573ffffffffffffffffffffffffffffffffffffffff1673ffffffffffffffffffffffffffffffffffffffff16815260200190815260200160002060006101000a81548160ff021916908315150217905550826003826040518082805190602001908083835b602083101515610d105780518252602082019150602081019050602083039250610ceb565b6001836020036101000a038019825116818451168082178552505050505050905001915050908152602001604051809103902060006101000a81548173ffffffffffffffffffffffffffffffffffffffff021916908373ffffffffffffffffffffffffffffffffffffffff160217905550505050565b60608060008060089054906101000a900473ffffffffffffffffffffffffffffffffffffffff1673ffffffffffffffffffffffffffffffffffffffff163373ffffffffffffffffffffffffffffffffffffffff16141515610de657600080fd5b60006003856040518082805190602001908083835b602083101515610e205780518252602082019150602081019050602083039250610dfb565b6001836020036101000a038019825116818451168082178552505050505050905001915050908152602001604051809103902060009054906101000a900473ffffffffffffffffffffffffffffffffffffffff169050600160008273ffffffffffffffffffffffffffffffffffffffff1673ffffffffffffffffffffffffffffffffffffffff1681526020019081526020016000206000018054600181600116156101000203166002900480601f016020809104026020016040519081016040528092919081815260200182805460018160011615610100020316600290048015610f4c5780601f10610f2157610100808354040283529160200191610f4c565b820191906000526020600020905b815481529060010190602001808311610f2f57829003601f168201915b50505050509350600160008273ffffffffffffffffffffffffffffffffffffffff1673ffffffffffffffffffffffffffffffffffffffff1681526020019081526020016000206001018054600181600116156101000203166002900480601f0160208091040260200160405190810160405280929190818152602001828054600181600116156101000203166002900480156110295780601f10610ffe57610100808354040283529160200191611029565b820191906000526020600020905b81548152906001019060200180831161100c57829003601f168201915b50505050509250600160008273ffffffffffffffffffffffffffffffffffffffff1673ffffffffffffffffffffffffffffffffffffffff16815260200190815260200160002060020160019054906101000a900467ffffffffffffffff169150509193909250565b600060011515600260003373ffffffffffffffffffffffffffffffffffffffff1673ffffffffffffffffffffffffffffffffffffffff16815260200190815260200160002060009054906101000a900460ff1615151415156110f257600080fd5b6000339050600160008273ffffffffffffffffffffffffffffffffffffffff1673ffffffffffffffffffffffffffffffffffffffff16815260200190815260200160002060020160019054906101000a900467ffffffffffffffff166000809054906101000a900467ffffffffffffffff160391505090565b33600060086101000a81548173ffffffffffffffffffffffffffffffffffffffff021916908373ffffffffffffffffffffffffffffffffffffffff16021790555081600160008060089054906101000a900473ffffffffffffffffffffffffffffffffffffffff1673ffffffffffffffffffffffffffffffffffffffff1673ffffffffffffffffffffffffffffffffffffffff1681526020019081526020016000206000019080519060200190611223929190611a8c565b5080600160008060089054906101000a900473ffffffffffffffffffffffffffffffffffffffff1673ffffffffffffffffffffffffffffffffffffffff1673ffffffffffffffffffffffffffffffffffffffff168152602001908152602001600020600101908051906020019061129b929190611a8c565b5060018060008060089054906101000a900473ffffffffffffffffffffffffffffffffffffffff1673ffffffffffffffffffffffffffffffffffffffff1673ffffffffffffffffffffffffffffffffffffffff16815260200190815260200160002060020160006101000a81548160ff0219169083151502179055506000600160008060089054906101000a900473ffffffffffffffffffffffffffffffffffffffff1673ffffffffffffffffffffffffffffffffffffffff1673ffffffffffffffffffffffffffffffffffffffff16815260200190815260200160002060020160016101000a81548167ffffffffffffffff021916908367ffffffffffffffff1602179055506001600260008060089054906101000a900473ffffffffffffffffffffffffffffffffffffffff1673ffffffffffffffffffffffffffffffffffffffff1673ffffffffffffffffffffffffffffffffffffffff16815260200190815260200160002060006101000a81548160ff021916908315150217905550600060089054906101000a900473ffffffffffffffffffffffffffffffffffffffff166003826040518082805190602001908083835b6020831015156114765780518252602082019150602081019050602083039250611451565b6001836020036101000a038019825116818451168082178552505050505050905001915050908152602001604051809103902060006101000a81548173ffffffffffffffffffffffffffffffffffffffff021916908373ffffffffffffffffffffffffffffffffffffffff16021790555060016000601c6101000a81548160ff0219169083151502179055505050565b600060011515600260003373ffffffffffffffffffffffffffffffffffffffff1673ffffffffffffffffffffffffffffffffffffffff16815260200190815260200160002060009054906101000a900460ff16151514151561156757600080fd5b6000809054906101000a900467ffffffffffffffff1667ffffffffffffffff1682600160003373ffffffffffffffffffffffffffffffffffffffff1673ffffffffffffffffffffffffffffffffffffffff16815260200190815260200160002060020160019054906101000a900467ffffffffffffffff160167ffffffffffffffff16111515156115f757600080fd5b600033905060001515600160008373ffffffffffffffffffffffffffffffffffffffff1673ffffffffffffffffffffffffffffffffffffffff16815260200190815260200160002060020160009054906101000a900460ff16151514156116615760009150611841565b6000809054906101000a900467ffffffffffffffff1667ffffffffffffffff1683600160008473ffffffffffffffffffffffffffffffffffffffff1673ffffffffffffffffffffffffffffffffffffffff16815260200190815260200160002060020160019054906101000a900467ffffffffffffffff160167ffffffffffffffff1611151561183b5782600160008373ffffffffffffffffffffffffffffffffffffffff1673ffffffffffffffffffffffffffffffffffffffff16815260200190815260200160002060020160018282829054906101000a900467ffffffffffffffff160192506101000a81548167ffffffffffffffff021916908367ffffffffffffffff1602179055506000600160008373ffffffffffffffffffffffffffffffffffffffff1673ffffffffffffffffffffffffffffffffffffffff16815260200190815260200160002060020160019054906101000a900467ffffffffffffffff1667ffffffffffffffff161415611832576000600160008373ffffffffffffffffffffffffffffffffffffffff1673ffffffffffffffffffffffffffffffffffffffff16815260200190815260200160002060020160006101000a81548160ff0219169083151502179055505b60019150611840565b600391505b5b50919050565b6060806000600160008573ffffffffffffffffffffffffffffffffffffffff1673ffffffffffffffffffffffffffffffffffffffff1681526020019081526020016000206000018054600181600116156101000203166002900480601f0160208091040260200160405190810160405280929190818152602001828054600181600116156101000203166002900480156119225780601f106118f757610100808354040283529160200191611922565b820191906000526020600020905b81548152906001019060200180831161190557829003601f168201915b50505050509250600160008573ffffffffffffffffffffffffffffffffffffffff1673ffffffffffffffffffffffffffffffffffffffff1681526020019081526020016000206001018054600181600116156101000203166002900480601f0160208091040260200160405190810160405280929190818152602001828054600181600116156101000203166002900480156119ff5780601f106119d4576101008083540402835291602001916119ff565b820191906000526020600020905b8154815290600101906020018083116119e257829003601f168201915b50505050509150600160008573ffffffffffffffffffffffffffffffffffffffff1673ffffffffffffffffffffffffffffffffffffffff16815260200190815260200160002060020160019054906101000a900467ffffffffffffffff1690509193909250565b600060089054906101000a900473ffffffffffffffffffffffffffffffffffffffff1681565b828054600181600116156101000203166002900490600052602060002090601f016020900481019282601f10611acd57805160ff1916838001178555611afb565b82800160010185558215611afb579182015b82811115611afa578251825591602001919060010190611adf565b5b509050611b089190611b0c565b5090565b611b2e91905b80821115611b2a576000816000905550600101611b12565b5090565b9056fea165627a7a72305820304aa7faa5b067cbf0e26b93a1fe51b102f863b9106e729ce37d27a050760eea0029",
  "source": "/*Solidity Smart Contract for Leave Management System\nContributors::\nAmit Priyankar(1701CS04)\nAnkur Dubey(1701CS07)\nAtul Upadhyay(1701CS13)\nB.Tech Second Year, IIT Patna\n*/\npragma solidity >=0.4.22 <0.6.0;\n\ncontract Leave\n{\n    struct Person\n    {\n        string name;//name of the person\n        string id;// identity card number\n        bool available;//if there is chance of taking leave\n        uint64 leave_count;//number of leaves taken till date\n    }\n\n    uint64 public max_leave = 20;//maximum number of leaves that can be taken in a year\n    \n    address public admin;//the person who can register someone into the database\n    \n    bool public admindone=false;//checks if admin is there(added later)\n\n    mapping(address=>Person) person;//mapping address to the person\n    mapping(address=>bool) registered;//this store if the person is registered in the database\n    \n    \n    mapping(string=>address)emp_details;//added later\n\n    function makeadmin(string memory nname, string memory idd) public\n    {\n        //following steps are just the registration of admin with all his details\n        admin=msg.sender;//registering admin as the sender of the argument to this function\n        person[admin].name=nname;\n        person[admin].id=idd;\n        person[admin].available=true;\n        person[admin].leave_count=0;\n        registered[admin]=true;\n        emp_details[idd]=admin;\n        admindone=true;\n    }\n    function setmaxleave(uint64 count) public//function to set the maximum number of leaves that can be taken\n    {\n        if(msg.sender!=admin){revert();}\n        max_leave=count;\n    }\n    //function to register a new person to the database\n    function register(address toPerson, string memory nname, string memory idd) public\n    {\n        if(msg.sender!=admin||registered[toPerson]==true){revert();}\n        \n        person[toPerson].name=nname;\n        person[toPerson].id=idd;\n        person[toPerson].available=true;\n        person[toPerson].leave_count=0;\n        registered[toPerson]=true;\n        emp_details[idd]=toPerson;\n    }\n    //function for a person to check number of days available for him to take a leave\n    function ask_available() public view returns (uint64 days_available)\n    {\n        require(registered[msg.sender]==true);\n        address temp;\n        temp=msg.sender;\n        \n        days_available=max_leave-person[temp].leave_count;\n        //can also return multiple values here if we want to give \n        //any kind of message to the user asking for leave\n    }\n    \n    \n    //for this function some special arrangements are to be made to print\n    //the message corresponding to the integer reply\n    function ask_leave(uint64 count_days) public returns (int8 reply)//function for person to ask leave\n    {\n        require(registered[msg.sender]==true);\n        require((person[msg.sender].leave_count + count_days) <= max_leave);\n        address temp;\n        temp=msg.sender;\n    \n        //it is to be checked if the person asking for\n        //leave is actually registered in the database\n        if(person[temp].available==false)reply=0;\n        else if(person[temp].leave_count+count_days<=max_leave)\n        {\n            person[temp].leave_count+=count_days;\n            if(person[temp].leave_count==0)person[temp].available=false;\n            reply=1;\n        }\n        else reply=3;\n    }\n\n    function details(string memory idd) view public returns (string memory name, string memory id, uint64 leave_count)\n    {\n        require(msg.sender==admin);\n        address temp=emp_details[idd];\n        name=person[temp].name;\n        id=person[temp].id;\n        leave_count=person[temp].leave_count;\n    }\n\n    function curdetails(address temp) view public returns (string memory name, string memory id, uint64 leave_count)\n    {\n        // require(msg.sender==admin);\n        // address temp=msg.sender;`\n        name=person[temp].name;\n        id=person[temp].id;\n        leave_count=person[temp].leave_count;\n    }\n\n\n    function changeadmin(address newadd) public\n    {\n        if(msg.sender!=admin)revert();\n        require(registered[newadd]==true);\n        admin=newadd;\n    }\n}\n\n/*\nto call a function inside another function we can define a library of functions as shown below\n\npragma solidity ^0.4.13;\n\ncontract test {\n\n    uint public fee; \n    function setFee(uint _fee){\n      fee = Sf.mul(_fee,10);\n    }\n\n}\n\n\nlibrary Sf{\n\n  function mul(uint256 a, uint256 b) internal constant returns (uint256) {\n    uint256 c = a * b;\n    assert(a == 0 || c / a == b);\n    return c;\n  }\n\n\n}\n*/\n",
  "sourcePath": "/home/unseen/Leave-Management-System/contracts/Leave.sol",
  "compiler": {
    "name": "solc",
    "version": "0.5.0+commit.1d4f565a.Emscripten.clang"
  },
  "schemaVersion": "3.0.2",
  "updatedAt": "2019-04-24T15:12:40.468Z",
  "devdoc": {
    "methods": {}
  },
  "userdoc": {
    "methods": {}
  }
}