{
  "contractName": "Leave",
  "abi": [
    {
      "constant": true,
      "inputs": [],
      "name": "max_leave",
      "outputs": [
        {
          "name": "",
          "type": "uint64"
        }
      ],
      "payable": false,
      "stateMutability": "view",
      "type": "function",
      "signature": "0x2fa0d51d"
    },
    {
      "constant": true,
      "inputs": [],
      "name": "adminDone",
      "outputs": [
        {
          "name": "",
          "type": "bool"
        }
      ],
      "payable": false,
      "stateMutability": "view",
      "type": "function",
      "signature": "0x3d6de50e"
    },
    {
      "constant": true,
      "inputs": [
        {
          "name": "",
          "type": "address"
        }
      ],
      "name": "users",
      "outputs": [
        {
          "name": "name",
          "type": "string"
        },
        {
          "name": "id",
          "type": "string"
        },
        {
          "name": "account",
          "type": "address"
        },
        {
          "name": "leave_count",
          "type": "uint256"
        },
        {
          "name": "days_count",
          "type": "uint256"
        },
        {
          "name": "exist",
          "type": "bool"
        }
      ],
      "payable": false,
      "stateMutability": "view",
      "type": "function",
      "signature": "0xa87430ba"
    },
    {
      "constant": true,
      "inputs": [
        {
          "name": "",
          "type": "uint256"
        }
      ],
      "name": "leaves",
      "outputs": [
        {
          "name": "applicant",
          "type": "address"
        },
        {
          "name": "dayCount",
          "type": "uint256"
        },
        {
          "name": "status",
          "type": "uint8"
        }
      ],
      "payable": false,
      "stateMutability": "view",
      "type": "function",
      "signature": "0xd455a79d"
    },
    {
      "constant": true,
      "inputs": [],
      "name": "admin",
      "outputs": [
        {
          "name": "",
          "type": "address"
        }
      ],
      "payable": false,
      "stateMutability": "view",
      "type": "function",
      "signature": "0xf851a440"
    },
    {
      "constant": true,
      "inputs": [
        {
          "name": "x",
          "type": "address"
        }
      ],
      "name": "userExists",
      "outputs": [
        {
          "name": "",
          "type": "bool"
        }
      ],
      "payable": false,
      "stateMutability": "view",
      "type": "function",
      "signature": "0x0e666e49"
    },
    {
      "constant": false,
      "inputs": [
        {
          "name": "idx",
          "type": "uint256"
        }
      ],
      "name": "approve_leave",
      "outputs": [
        {
          "name": "",
          "type": "bool"
        }
      ],
      "payable": false,
      "stateMutability": "nonpayable",
      "type": "function",
      "signature": "0x5c49c2ce"
    },
    {
      "constant": false,
      "inputs": [
        {
          "name": "idx",
          "type": "uint256"
        }
      ],
      "name": "reject_leave",
      "outputs": [
        {
          "name": "",
          "type": "bool"
        }
      ],
      "payable": false,
      "stateMutability": "nonpayable",
      "type": "function",
      "signature": "0x7fc61045"
    },
    {
      "constant": false,
      "inputs": [
        {
          "name": "nname",
          "type": "string"
        },
        {
          "name": "idd",
          "type": "string"
        }
      ],
      "name": "makeadmin",
      "outputs": [
        {
          "name": "",
          "type": "bool"
        }
      ],
      "payable": false,
      "stateMutability": "nonpayable",
      "type": "function",
      "signature": "0xd0358b4a"
    },
    {
      "constant": false,
      "inputs": [
        {
          "name": "useradd",
          "type": "address"
        },
        {
          "name": "nname",
          "type": "string"
        },
        {
          "name": "idd",
          "type": "string"
        }
      ],
      "name": "register",
      "outputs": [
        {
          "name": "",
          "type": "bool"
        }
      ],
      "payable": false,
      "stateMutability": "nonpayable",
      "type": "function",
      "signature": "0x8d59cc02"
    },
    {
      "constant": false,
      "inputs": [
        {
          "name": "no_of_days",
          "type": "uint256"
        }
      ],
      "name": "ask_leave",
      "outputs": [
        {
          "name": "",
          "type": "bool"
        }
      ],
      "payable": false,
      "stateMutability": "nonpayable",
      "type": "function",
      "signature": "0x73af8b0a"
    },
    {
      "constant": false,
      "inputs": [
        {
          "name": "idx",
          "type": "uint256"
        }
      ],
      "name": "cancelLeave",
      "outputs": [
        {
          "name": "",
          "type": "bool"
        }
      ],
      "payable": false,
      "stateMutability": "nonpayable",
      "type": "function",
      "signature": "0x6719dc65"
    },
    {
      "constant": false,
      "inputs": [],
      "name": "toApprove",
      "outputs": [
        {
          "name": "",
          "type": "bool"
        },
        {
          "name": "",
          "type": "uint256[]"
        },
        {
          "name": "",
          "type": "address[]"
        },
        {
          "name": "",
          "type": "uint256[]"
        }
      ],
      "payable": false,
      "stateMutability": "nonpayable",
      "type": "function",
      "signature": "0x6958c570"
    },
    {
      "constant": true,
      "inputs": [
        {
          "name": "i",
          "type": "uint256"
        }
      ],
      "name": "showLeave",
      "outputs": [
        {
          "name": "",
          "type": "bool"
        },
        {
          "name": "",
          "type": "address"
        },
        {
          "name": "",
          "type": "uint256"
        },
        {
          "name": "",
          "type": "uint8"
        }
      ],
      "payable": false,
      "stateMutability": "view",
      "type": "function",
      "signature": "0x1a37ebbc"
    },
    {
      "constant": true,
      "inputs": [],
      "name": "getMyLeaves",
      "outputs": [
        {
          "name": "",
          "type": "bool"
        },
        {
          "name": "",
          "type": "uint256[]"
        },
        {
          "name": "",
          "type": "uint256[]"
        },
        {
          "name": "",
          "type": "uint8[]"
        }
      ],
      "payable": false,
      "stateMutability": "view",
      "type": "function",
      "signature": "0xa6be04eb"
    },
    {
      "constant": true,
      "inputs": [
        {
          "name": "idd",
          "type": "string"
        }
      ],
      "name": "details",
      "outputs": [
        {
          "name": "",
          "type": "bool"
        },
        {
          "name": "",
          "type": "string"
        },
        {
          "name": "",
          "type": "uint256"
        }
      ],
      "payable": false,
      "stateMutability": "view",
      "type": "function",
      "signature": "0xa19556d4"
    }
  ],
  "bytecode": "0x608060405260008060146101000a81548160ff021916908315150217905550601e600060156101000a81548167ffffffffffffffff021916908367ffffffffffffffff160217905550600060045534801561005957600080fd5b50612a11806100696000396000f3fe6080604052600436106100e6576000357c0100000000000000000000000000000000000000000000000000000000900463ffffffff1680630e666e49146100eb5780631a37ebbc146101545780632fa0d51d146101f65780633d6de50e146102355780635c49c2ce146102645780636719dc65146102b75780636958c5701461030a57806373af8b0a146104115780637fc61045146104645780638d59cc02146104b7578063a19556d41461064e578063a6be04eb146107a1578063a87430ba146108a8578063d0358b4a14610a2a578063d455a79d14610ba1578063f851a44014610c38575b600080fd5b3480156100f757600080fd5b5061013a6004803603602081101561010e57600080fd5b81019080803573ffffffffffffffffffffffffffffffffffffffff169060200190929190505050610c8f565b604051808215151515815260200191505060405180910390f35b34801561016057600080fd5b5061018d6004803603602081101561017757600080fd5b8101908080359060200190929190505050610ce8565b60405180851515151581526020018473ffffffffffffffffffffffffffffffffffffffff1673ffffffffffffffffffffffffffffffffffffffff1681526020018381526020018260038111156101df57fe5b60ff16815260200194505050505060405180910390f35b34801561020257600080fd5b5061020b610db8565b604051808267ffffffffffffffff1667ffffffffffffffff16815260200191505060405180910390f35b34801561024157600080fd5b5061024a610dd2565b604051808215151515815260200191505060405180910390f35b34801561027057600080fd5b5061029d6004803603602081101561028757600080fd5b8101908080359060200190929190505050610de5565b604051808215151515815260200191505060405180910390f35b3480156102c357600080fd5b506102f0600480360360208110156102da57600080fd5b8101908080359060200190929190505050610ee8565b604051808215151515815260200191505060405180910390f35b34801561031657600080fd5b5061031f611079565b6040518085151515158152602001806020018060200180602001848103845287818151815260200191508051906020019060200280838360005b83811015610374578082015181840152602081019050610359565b50505050905001848103835286818151815260200191508051906020019060200280838360005b838110156103b657808201518184015260208101905061039b565b50505050905001848103825285818151815260200191508051906020019060200280838360005b838110156103f85780820151818401526020810190506103dd565b5050505090500197505050505050505060405180910390f35b34801561041d57600080fd5b5061044a6004803603602081101561043457600080fd5b810190808035906020019092919050505061155d565b604051808215151515815260200191505060405180910390f35b34801561047057600080fd5b5061049d6004803603602081101561048757600080fd5b81019080803590602001909291905050506117d1565b604051808215151515815260200191505060405180910390f35b3480156104c357600080fd5b50610634600480360360608110156104da57600080fd5b81019080803573ffffffffffffffffffffffffffffffffffffffff1690602001909291908035906020019064010000000081111561051757600080fd5b82018360208201111561052957600080fd5b8035906020019184600183028401116401000000008311171561054b57600080fd5b91908080601f016020809104026020016040519081016040528093929190818152602001838380828437600081840152601f19601f820116905080830192505050505050509192919290803590602001906401000000008111156105ae57600080fd5b8201836020820111156105c057600080fd5b803590602001918460018302840111640100000000831117156105e257600080fd5b91908080601f016020809104026020016040519081016040528093929190818152602001838380828437600081840152601f19601f820116905080830192505050505050509192919290505050611983565b604051808215151515815260200191505060405180910390f35b34801561065a57600080fd5b506107146004803603602081101561067157600080fd5b810190808035906020019064010000000081111561068e57600080fd5b8201836020820111156106a057600080fd5b803590602001918460018302840111640100000000831117156106c257600080fd5b91908080601f016020809104026020016040519081016040528093929190818152602001838380828437600081840152601f19601f820116905080830192505050505050509192919290505050611bfe565b604051808415151515815260200180602001838152602001828103825284818151815260200191508051906020019080838360005b83811015610764578082015181840152602081019050610749565b50505050905090810190601f1680156107915780820380516001836020036101000a031916815260200191505b5094505050505060405180910390f35b3480156107ad57600080fd5b506107b6612003565b6040518085151515158152602001806020018060200180602001848103845287818151815260200191508051906020019060200280838360005b8381101561080b5780820151818401526020810190506107f0565b50505050905001848103835286818151815260200191508051906020019060200280838360005b8381101561084d578082015181840152602081019050610832565b50505050905001848103825285818151815260200191508051906020019060200280838360005b8381101561088f578082015181840152602081019050610874565b5050505090500197505050505050505060405180910390f35b3480156108b457600080fd5b506108f7600480360360208110156108cb57600080fd5b81019080803573ffffffffffffffffffffffffffffffffffffffff16906020019092919050505061228d565b6040518080602001806020018773ffffffffffffffffffffffffffffffffffffffff1673ffffffffffffffffffffffffffffffffffffffff16815260200186815260200185815260200184151515158152602001838103835289818151815260200191508051906020019080838360005b83811015610983578082015181840152602081019050610968565b50505050905090810190601f1680156109b05780820380516001836020036101000a031916815260200191505b50838103825288818151815260200191508051906020019080838360005b838110156109e95780820151818401526020810190506109ce565b50505050905090810190601f168015610a165780820380516001836020036101000a031916815260200191505b509850505050505050505060405180910390f35b348015610a3657600080fd5b50610b8760048036036040811015610a4d57600080fd5b8101908080359060200190640100000000811115610a6a57600080fd5b820183602082011115610a7c57600080fd5b80359060200191846001830284011164010000000083111715610a9e57600080fd5b91908080601f016020809104026020016040519081016040528093929190818152602001838380828437600081840152601f19601f82011690508083019250505050505050919291929080359060200190640100000000811115610b0157600080fd5b820183602082011115610b1357600080fd5b80359060200191846001830284011164010000000083111715610b3557600080fd5b91908080601f016020809104026020016040519081016040528093929190818152602001838380828437600081840152601f19601f820116905080830192505050505050509192919290505050612426565b604051808215151515815260200191505060405180910390f35b348015610bad57600080fd5b50610bda60048036036020811015610bc457600080fd5b8101908080359060200190929190505050612709565b604051808473ffffffffffffffffffffffffffffffffffffffff1673ffffffffffffffffffffffffffffffffffffffff168152602001838152602001826003811115610c2257fe5b60ff168152602001935050505060405180910390f35b348015610c4457600080fd5b50610c4d61276f565b604051808273ffffffffffffffffffffffffffffffffffffffff1673ffffffffffffffffffffffffffffffffffffffff16815260200191505060405180910390f35b6000600160008373ffffffffffffffffffffffffffffffffffffffff1673ffffffffffffffffffffffffffffffffffffffff16815260200190815260200160002060050160009054906101000a900460ff169050919050565b60008060008060008060028054905087101515610d145760008183600095509550955095505050610db1565b6001600288815481101515610d2557fe5b906000526020600020906003020160000160009054906101000a900473ffffffffffffffffffffffffffffffffffffffff16600289815481101515610d6657fe5b90600052602060002090600302016001015460028a815481101515610d8757fe5b906000526020600020906003020160020160009054906101000a900460ff16955095509550955050505b9193509193565b600060159054906101000a900467ffffffffffffffff1681565b600060149054906101000a900460ff1681565b60008060009054906101000a900473ffffffffffffffffffffffffffffffffffffffff1673ffffffffffffffffffffffffffffffffffffffff163373ffffffffffffffffffffffffffffffffffffffff16141515610e465760009050610ee3565b60006003811115610e5357fe5b600283815481101515610e6257fe5b906000526020600020906003020160020160009054906101000a900460ff166003811115610e8c57fe5b141515610e9c5760009050610ee3565b6001600283815481101515610ead57fe5b906000526020600020906003020160020160006101000a81548160ff02191690836003811115610ed957fe5b0217905550600190505b919050565b6000600282815481101515610ef957fe5b906000526020600020906003020160000160009054906101000a900473ffffffffffffffffffffffffffffffffffffffff1673ffffffffffffffffffffffffffffffffffffffff163373ffffffffffffffffffffffffffffffffffffffff16141515610f685760009050611074565b60006003811115610f7557fe5b600283815481101515610f8457fe5b906000526020600020906003020160020160009054906101000a900460ff166003811115610fae57fe5b141561106f576003600283815481101515610fc557fe5b906000526020600020906003020160020160006101000a81548160ff02191690836003811115610ff157fe5b021790555060028281548110151561100557fe5b906000526020600020906003020160010154600160003373ffffffffffffffffffffffffffffffffffffffff1673ffffffffffffffffffffffffffffffffffffffff1681526020019081526020016000206004016000828254039250508190555060019050611074565b600090505b919050565b6000606080606060006002805490509050606080606082600590805190602001906110a5929190612794565b5081600690805190602001906110bc9291906127e1565b5080600790805190602001906110d3929190612794565b506000809054906101000a900473ffffffffffffffffffffffffffffffffffffffff1673ffffffffffffffffffffffffffffffffffffffff163373ffffffffffffffffffffffffffffffffffffffff1614151561126f5760006005600660078280548060200260200160405190810160405280929190818152602001828054801561117d57602002820191906000526020600020905b815481526020019060010190808311611169575b505050505092508180548060200260200160405190810160405280929190818152602001828054801561120557602002820191906000526020600020905b8160009054906101000a900473ffffffffffffffffffffffffffffffffffffffff1673ffffffffffffffffffffffffffffffffffffffff16815260200190600101908083116111bb575b505050505091508080548060200260200160405190810160405280929190818152602001828054801561125757602002820191906000526020600020905b815481526020019060010190808311611243575b50505050509050975097509750975050505050611557565b600060019050600060045490505b85811015611414576000600381111561129257fe5b6002828154811015156112a157fe5b906000526020600020906003020160020160009054906101000a900460ff1660038111156112cb57fe5b14156113f857600091506005819080600181540180825580915050906001820390600052602060002001600090919290919091505550600660028281548110151561131257fe5b906000526020600020906003020160000160009054906101000a900473ffffffffffffffffffffffffffffffffffffffff1690806001815401808255809150509060018203906000526020600020016000909192909190916101000a81548173ffffffffffffffffffffffffffffffffffffffff021916908373ffffffffffffffffffffffffffffffffffffffff1602179055505060076002828154811015156113b857fe5b9060005260206000209060030201600101549080600181540180825580915050906001820390600052602060002001600090919290919091505550611407565b811561140657806004819055505b5b808060010191505061127d565b5060016005600660078280548060200260200160405190810160405280929190818152602001828054801561146857602002820191906000526020600020905b815481526020019060010190808311611454575b50505050509250818054806020026020016040519081016040528092919081815260200182805480156114f057602002820191906000526020600020905b8160009054906101000a900473ffffffffffffffffffffffffffffffffffffffff1673ffffffffffffffffffffffffffffffffffffffff16815260200190600101908083116114a6575b505050505091508080548060200260200160405190810160405280929190818152602001828054801561154257602002820191906000526020600020905b81548152602001906001019080831161152e575b50505050509050985098509850985050505050505b90919293565b60006001151561156c33610c8f565b151514151561157e57600090506117cc565b6001151561158b33610c8f565b151514151561159957600080fd5b6000600160003373ffffffffffffffffffffffffffffffffffffffff1673ffffffffffffffffffffffffffffffffffffffff16815260200190815260200160002060040154600060159054906101000a900467ffffffffffffffff1667ffffffffffffffff160311151561160c57600080fd5b61161461286b565b33816000019073ffffffffffffffffffffffffffffffffffffffff16908173ffffffffffffffffffffffffffffffffffffffff16815250508281602001818152505060008160400190600381111561166857fe5b9081600381111561167557fe5b8152505082600160003373ffffffffffffffffffffffffffffffffffffffff1673ffffffffffffffffffffffffffffffffffffffff168152602001908152602001600020600401600082825401925050819055506002819080600181540180825580915050906001820390600052602060002090600302016000909192909190915060008201518160000160006101000a81548173ffffffffffffffffffffffffffffffffffffffff021916908373ffffffffffffffffffffffffffffffffffffffff1602179055506020820151816001015560408201518160020160006101000a81548160ff0219169083600381111561176c57fe5b0217905550505050600160003373ffffffffffffffffffffffffffffffffffffffff1673ffffffffffffffffffffffffffffffffffffffff1681526020019081526020016000206003016000815480929190600101919050555060019150505b919050565b60008060009054906101000a900473ffffffffffffffffffffffffffffffffffffffff1673ffffffffffffffffffffffffffffffffffffffff163373ffffffffffffffffffffffffffffffffffffffff16141515611832576000905061197e565b6000600381111561183f57fe5b60028381548110151561184e57fe5b906000526020600020906003020160020160009054906101000a900460ff16600381111561187857fe5b141515611888576000905061197e565b6002808381548110151561189857fe5b906000526020600020906003020160020160006101000a81548160ff021916908360038111156118c457fe5b02179055506002828154811015156118d857fe5b906000526020600020906003020160010154600160006002858154811015156118fd57fe5b906000526020600020906003020160000160009054906101000a900473ffffffffffffffffffffffffffffffffffffffff1673ffffffffffffffffffffffffffffffffffffffff1673ffffffffffffffffffffffffffffffffffffffff16815260200190815260200160002060040160008282540392505081905550600190505b919050565b60008060009054906101000a900473ffffffffffffffffffffffffffffffffffffffff1673ffffffffffffffffffffffffffffffffffffffff163373ffffffffffffffffffffffffffffffffffffffff161415806119e657506119e584610c8f565b5b806119fe5750600060149054906101000a900460ff16155b15611a0c5760009050611bf7565b836003836040518082805190602001908083835b602083101515611a455780518252602082019150602081019050602083039250611a20565b6001836020036101000a038019825116818451168082178552505050505050905001915050908152602001604051809103902060006101000a81548173ffffffffffffffffffffffffffffffffffffffff021916908373ffffffffffffffffffffffffffffffffffffffff16021790555060c0604051908101604052808481526020018381526020018573ffffffffffffffffffffffffffffffffffffffff168152602001600081526020016000815260200160011515815250600160008673ffffffffffffffffffffffffffffffffffffffff1673ffffffffffffffffffffffffffffffffffffffff1681526020019081526020016000206000820151816000019080519060200190611b5a9291906128ae565b506020820151816001019080519060200190611b779291906128ae565b5060408201518160020160006101000a81548173ffffffffffffffffffffffffffffffffffffffff021916908373ffffffffffffffffffffffffffffffffffffffff160217905550606082015181600301556080820151816004015560a08201518160050160006101000a81548160ff0219169083151502179055509050505b9392505050565b6000606060008060009054906101000a900473ffffffffffffffffffffffffffffffffffffffff1673ffffffffffffffffffffffffffffffffffffffff163373ffffffffffffffffffffffffffffffffffffffff16141515611c5f57600080fd5b6060600060011515611cfb6003886040518082805190602001908083835b602083101515611ca25780518252602082019150602081019050602083039250611c7d565b6001836020036101000a038019825116818451168082178552505050505050905001915050908152602001604051809103902060009054906101000a900473ffffffffffffffffffffffffffffffffffffffff16610c8f565b1515141515611d1557600082829450945094505050611ffc565b611d1d61292e565b600160006003896040518082805190602001908083835b602083101515611d595780518252602082019150602081019050602083039250611d34565b6001836020036101000a038019825116818451168082178552505050505050905001915050908152602001604051809103902060009054906101000a900473ffffffffffffffffffffffffffffffffffffffff1673ffffffffffffffffffffffffffffffffffffffff1673ffffffffffffffffffffffffffffffffffffffff16815260200190815260200160002060c06040519081016040529081600082018054600181600116156101000203166002900480601f016020809104026020016040519081016040528092919081815260200182805460018160011615610100020316600290048015611e8c5780601f10611e6157610100808354040283529160200191611e8c565b820191906000526020600020905b815481529060010190602001808311611e6f57829003601f168201915b50505050508152602001600182018054600181600116156101000203166002900480601f016020809104026020016040519081016040528092919081815260200182805460018160011615610100020316600290048015611f2e5780601f10611f0357610100808354040283529160200191611f2e565b820191906000526020600020905b815481529060010190602001808311611f1157829003601f168201915b505050505081526020016002820160009054906101000a900473ffffffffffffffffffffffffffffffffffffffff1673ffffffffffffffffffffffffffffffffffffffff1673ffffffffffffffffffffffffffffffffffffffff16815260200160038201548152602001600482015481526020016005820160009054906101000a900460ff1615151515815250509050806000015192508060800151600060159054906101000a900467ffffffffffffffff1667ffffffffffffffff16039150600183839550955095505050505b9193909250565b600060608060606000600160003373ffffffffffffffffffffffffffffffffffffffff1673ffffffffffffffffffffffffffffffffffffffff1681526020019081526020016000206003015490506060816040519080825280602002602001820160405280156120825781602001602082028038833980820191505090505b5090506060826040519080825280602002602001820160405280156120b65781602001602082028038833980820191505090505b5090506060836040519080825280602002602001820160405280156120ea5781602001602082028038833980820191505090505b509050600084141561210c576000838383975097509750975050505050612287565b6000809050600280549050945060006001860390505b600081101515612273573373ffffffffffffffffffffffffffffffffffffffff1660028281548110151561215257fe5b906000526020600020906003020160000160009054906101000a900473ffffffffffffffffffffffffffffffffffffffff1673ffffffffffffffffffffffffffffffffffffffff161415612265578085838151811015156121af57fe5b90602001906020020181815250506002818154811015156121cc57fe5b90600052602060002090600302016001015484838151811015156121ec57fe5b906020019060200201818152505060028181548110151561220957fe5b906000526020600020906003020160020160009054906101000a900460ff16838381518110151561223657fe5b90602001906020020190600381111561224b57fe5b9081600381111561225857fe5b8152505081806001019250505b808060019003915050612122565b506001848484985098509850985050505050505b90919293565b6001602052806000526040600020600091509050806000018054600181600116156101000203166002900480601f0160208091040260200160405190810160405280929190818152602001828054600181600116156101000203166002900480156123395780601f1061230e57610100808354040283529160200191612339565b820191906000526020600020905b81548152906001019060200180831161231c57829003601f168201915b505050505090806001018054600181600116156101000203166002900480601f0160208091040260200160405190810160405280929190818152602001828054600181600116156101000203166002900480156123d75780601f106123ac576101008083540402835291602001916123d7565b820191906000526020600020905b8154815290600101906020018083116123ba57829003601f168201915b5050505050908060020160009054906101000a900473ffffffffffffffffffffffffffffffffffffffff16908060030154908060040154908060050160009054906101000a900460ff16905086565b600061243133610c8f565b806124485750600060149054906101000a900460ff165b156124565760009050612703565b336000806101000a81548173ffffffffffffffffffffffffffffffffffffffff021916908373ffffffffffffffffffffffffffffffffffffffff1602179055506000809054906101000a900473ffffffffffffffffffffffffffffffffffffffff166003836040518082805190602001908083835b6020831015156124f057805182526020820191506020810190506020830392506124cb565b6001836020036101000a038019825116818451168082178552505050505050905001915050908152602001604051809103902060006101000a81548173ffffffffffffffffffffffffffffffffffffffff021916908373ffffffffffffffffffffffffffffffffffffffff1602179055506001600060146101000a81548160ff02191690831515021790555060c0604051908101604052808481526020018381526020016000809054906101000a900473ffffffffffffffffffffffffffffffffffffffff1673ffffffffffffffffffffffffffffffffffffffff168152602001600081526020016000815260200160011515815250600160008060009054906101000a900473ffffffffffffffffffffffffffffffffffffffff1673ffffffffffffffffffffffffffffffffffffffff1673ffffffffffffffffffffffffffffffffffffffff16815260200190815260200160002060008201518160000190805190602001906126629291906128ae565b50602082015181600101908051906020019061267f9291906128ae565b5060408201518160020160006101000a81548173ffffffffffffffffffffffffffffffffffffffff021916908373ffffffffffffffffffffffffffffffffffffffff160217905550606082015181600301556080820151816004015560a08201518160050160006101000a81548160ff021916908315150217905550905050600190505b92915050565b60028181548110151561271857fe5b90600052602060002090600302016000915090508060000160009054906101000a900473ffffffffffffffffffffffffffffffffffffffff16908060010154908060020160009054906101000a900460ff16905083565b6000809054906101000a900473ffffffffffffffffffffffffffffffffffffffff1681565b8280548282559060005260206000209081019282156127d0579160200282015b828111156127cf5782518255916020019190600101906127b4565b5b5090506127dd919061297d565b5090565b82805482825590600052602060002090810192821561285a579160200282015b828111156128595782518260006101000a81548173ffffffffffffffffffffffffffffffffffffffff021916908373ffffffffffffffffffffffffffffffffffffffff16021790555091602001919060010190612801565b5b50905061286791906129a2565b5090565b606060405190810160405280600073ffffffffffffffffffffffffffffffffffffffff16815260200160008152602001600060038111156128a857fe5b81525090565b828054600181600116156101000203166002900490600052602060002090601f016020900481019282601f106128ef57805160ff191683800117855561291d565b8280016001018555821561291d579182015b8281111561291c578251825591602001919060010190612901565b5b50905061292a919061297d565b5090565b60c0604051908101604052806060815260200160608152602001600073ffffffffffffffffffffffffffffffffffffffff16815260200160008152602001600081526020016000151581525090565b61299f91905b8082111561299b576000816000905550600101612983565b5090565b90565b6129e291905b808211156129de57600081816101000a81549073ffffffffffffffffffffffffffffffffffffffff0219169055506001016129a8565b5090565b9056fea165627a7a723058201a6ce7405b60d8542109f8974fcbbbed2dff7546d6f18d3956ea403954d4ecb70029",
  "source": "/*Solidity Smart Contract for Leave Management System\r\nContributors::\r\nAmit Priyankar(1701CS04)\r\nAnkur Dubey(1701CS07)\r\nAtul Upadhyay(1701CS13)\r\nB.Tech Second Year, IIT Patna\r\n2019\r\n*/\r\npragma solidity >=0.4.22 <0.6.0;\r\n\r\ncontract Leave\r\n{\r\n    struct user\r\n    {\r\n        string name;\r\n        string id;\r\n        address account;\r\n        uint leave_count;//no of leaves taken\r\n        uint days_count;//no of days of leaves\r\n        bool exist;\r\n    }//there can be need to store the leave ledger number for the different leaves of an user\r\n    \r\n    struct leavedetail\r\n    {\r\n        address applicant;\r\n        uint dayCount;//number of days in a particular leave\r\n        leavestatus status;\r\n    }\r\n\r\n    enum leavestatus\r\n    {\r\n        APPLIED, APPROVED, REJECTED, CANCELLED\r\n    }\r\n    \r\n    address public admin;//address which will be registered first\r\n    bool public adminDone=false;\r\n    uint64 public max_leave = 30;//maximum number of leaves that can be taken in a year\r\n\r\n    mapping(address=>user) public users;\r\n    leavedetail[] public leaves;\r\n    mapping(string=>address) fetch;//mapping from employee ID to the address of an employee\r\n    uint reached=0;\r\n\r\n    function userExists(address x) public view returns (bool)\r\n    {\r\n        return users[x].exist;\r\n    }\r\n\r\n    function approve_leave(uint idx) public returns (bool)\r\n    {\r\n        if(msg.sender!=admin)return false;\r\n        else if (leaves[idx].status!=leavestatus.APPLIED)return false;\r\n        leaves[idx].status=leavestatus.APPROVED;\r\n        return true;\r\n    }\r\n\r\n    function reject_leave(uint idx) public returns (bool)\r\n    {\r\n        if(msg.sender!=admin)return false;\r\n        else if (leaves[idx].status!=leavestatus.APPLIED) return false;\r\n        leaves[idx].status=leavestatus.REJECTED;\r\n        users[leaves[idx].applicant].days_count-=leaves[idx].dayCount;\r\n        return true;\r\n    }\r\n\r\n    //set admin\r\n    function makeadmin(string memory nname, string memory idd) public returns (bool)\r\n    {\r\n        if(userExists(msg.sender)||adminDone)return false;\r\n        admin=msg.sender;\r\n        fetch[idd]=admin;\r\n        adminDone=true;//admin is now registered\r\n        users[admin]=user({\r\n            name: nname,\r\n            id: idd,\r\n            account: admin,\r\n            leave_count:0, \r\n            days_count:0,\r\n            exist:true\r\n        });\r\n        return true;\r\n    }\r\n\r\n    //register new user\r\n    function register(address useradd, string memory nname, string memory idd) public returns (bool)\r\n    {\r\n        if(msg.sender!=admin||userExists(useradd)||!adminDone)return false;\r\n        fetch[idd]=useradd;\r\n        users[useradd]=user({\r\n            name: nname,\r\n            id:idd, \r\n            account: useradd, \r\n            leave_count:0, \r\n            days_count:0,\r\n            exist:true\r\n        });\r\n    }\r\n\r\n    function ask_leave(uint no_of_days) public returns (bool)\r\n    {\r\n        if(userExists(msg.sender)!=true)return false;\r\n        require(userExists(msg.sender)==true);\r\n        require(max_leave - users[msg.sender].days_count > 0);\r\n        \r\n        leavedetail memory temp;\r\n        temp.applicant=msg.sender;\r\n        temp.dayCount=no_of_days;\r\n        temp.status=leavestatus.APPLIED;\r\n        users[msg.sender].days_count+=no_of_days;\r\n        leaves.push(temp);\r\n        \r\n        users[msg.sender].leave_count++;\r\n        return true;\r\n    }\r\n    function cancelLeave(uint idx) public returns (bool)\r\n    {\r\n        if(msg.sender!=leaves[idx].applicant)return false;\r\n        else if(leaves[idx].status==leavestatus.APPLIED)\r\n        {\r\n            leaves[idx].status=leavestatus.CANCELLED;\r\n            users[msg.sender].days_count-=leaves[idx].dayCount;\r\n            return true;\r\n        }\r\n        else return false;\r\n    }\r\n    // function getAllLeaves() public view returns (bool, address[] memory, uint[] memory, leavestatus[] memory)\r\n    // {\r\n    //     uint size=leaves.length;\r\n        \r\n    //     address[] memory tempAddress=new address[](size);\r\n    //     uint[] memory tempDays = new uint[](size);\r\n    //     leavestatus[] memory tempLeaveStatus= new leavestatus[](size);\r\n        \r\n    //     if(msg.sender!=admin)\r\n    //     {\r\n    //         return (false, tempAddress, tempDays, tempLeaveStatus);\r\n    //     }\r\n\r\n    //     for(uint i=0; i<size;i++)\r\n    //     {\r\n    //         tempAddress[i]=leaves[i].applicant;\r\n    //         tempDays[i]=leaves[i].dayCount;\r\n    //         tempLeaveStatus[i]=leaves[i].status;\r\n    //     }\r\n    //     return (true, tempAddress, tempDays, tempLeaveStatus);\r\n\r\n    // }\r\n    uint[] tempIndex;\r\n    address[] tempAdd;\r\n    uint[] tempDays;\r\n    function toApprove() public returns (bool, uint[] memory, address[] memory, uint[] memory)\r\n    {\r\n        uint size=leaves.length;\r\n        \r\n        uint[] memory ttempIndex;\r\n        address[] memory ttempAdd;\r\n        uint[] memory ttempDays;\r\n        \r\n        tempIndex=ttempIndex;\r\n        tempAdd=ttempAdd;\r\n        tempDays=ttempDays;\r\n        \r\n        if(msg.sender!=admin)\r\n        {\r\n            return (false, tempIndex, tempAdd, tempDays);\r\n        }\r\n        bool ok=true;\r\n        for(uint i=reached; i<size;i++)\r\n        {\r\n            if(leaves[i].status==leavestatus.APPLIED)\r\n            {\r\n                ok=false;\r\n                tempIndex.push(i);\r\n                tempAdd.push(leaves[i].applicant);\r\n                // tempName.push(users[leaves[i].applicant].name);\r\n                // tempId.push(users[leaves[i].applicant].id);\r\n                tempDays.push(leaves[i].dayCount);\r\n                // tempLeaveStatus.push(leaves[i].status);\r\n            }\r\n            else if(ok)reached=i;\r\n        }\r\n        return (true, tempIndex, tempAdd, tempDays);\r\n    }\r\n\r\n    function showLeave(uint i) public view returns (bool, address, uint, leavestatus) \r\n    {\r\n\t\tuint temp1;\r\n\t\taddress temp2;\r\n\t\tif(i>=leaves.length)return (false, temp2, temp1, leavestatus.APPLIED);\r\n\t\treturn (true, leaves[i].applicant, leaves[i].dayCount, leaves[i].status);\r\n\t}\r\n    \r\n    function getMyLeaves() public view returns (bool, uint[] memory, uint[] memory, leavestatus[] memory) \r\n    {\r\n\t\tuint size = users[msg.sender].leave_count;\r\n        uint[] memory ttempIndex = new uint[](size);\r\n\t\tuint[] memory ttempDays = new uint[](size);\r\n\t\tleavestatus[] memory tempLeaveStatus = new leavestatus[](size);\r\n\t\t\r\n        if(size==0)return (false, ttempIndex, ttempDays, tempLeaveStatus);\r\n\t\tuint ct=0;\r\n\t\tsize = leaves.length;\r\n\t\tfor (uint i=size-1;i>=0;i--){\r\n\t\t\tif(leaves[i].applicant == msg.sender)\r\n            {\r\n                ttempIndex[ct]=i;\r\n\t\t\t\t// tempAddress[ct]=leaves[i].applicant;\r\n\t\t\t\tttempDays[ct]=leaves[i].dayCount;\r\n\t\t\t\ttempLeaveStatus[ct]=leaves[i].status;\r\n\t\t\t\tct++;\t\r\n\t\t\t}\r\n\t\t}\r\n\t\treturn (true, ttempIndex, ttempDays, tempLeaveStatus);\r\n\t}//this can be optimisted by using a mapping which stores the indexes of leaves of all the user\r\n\r\n    //fetch details of a user\r\n    function details(string memory idd) public view returns (bool, string memory, uint)\r\n    {\r\n        require(msg.sender==admin);\r\n        string memory tempName;\r\n        // uint leaveCount;\r\n        uint daysCount;//number of days remaining\r\n        if(userExists(fetch[idd])!=true)return (false, tempName, daysCount);\r\n        user memory temp=users[fetch[idd]];\r\n        tempName=temp.name;\r\n        // leaveCount=temp.leave_count;\r\n        daysCount= max_leave - temp.days_count;\r\n        return (true, tempName, daysCount);\r\n    }\r\n}\r\n",
  "sourcePath": "/home/unseen/Leave-Management-System/contracts/Leave.sol",
  "compiler": {
    "name": "solc",
    "version": "0.5.0+commit.1d4f565a.Emscripten.clang"
  },
  "schemaVersion": "3.0.2",
  "updatedAt": "2019-04-25T08:23:11.089Z",
  "devdoc": {
    "methods": {}
  },
  "userdoc": {
    "methods": {}
  }
}