{
  "contractName": "Leave",
  "abi": [
    {
      "constant": true,
      "inputs": [],
      "name": "max_leave",
      "outputs": [
        {
          "name": "",
          "type": "uint64"
        }
      ],
      "payable": false,
      "stateMutability": "view",
      "type": "function",
      "signature": "0x2fa0d51d"
    },
    {
      "constant": true,
      "inputs": [],
      "name": "adminDone",
      "outputs": [
        {
          "name": "",
          "type": "bool"
        }
      ],
      "payable": false,
      "stateMutability": "view",
      "type": "function",
      "signature": "0x3d6de50e"
    },
    {
      "constant": true,
      "inputs": [
        {
          "name": "",
          "type": "address"
        }
      ],
      "name": "users",
      "outputs": [
        {
          "name": "name",
          "type": "string"
        },
        {
          "name": "id",
          "type": "string"
        },
        {
          "name": "account",
          "type": "address"
        },
        {
          "name": "leave_count",
          "type": "uint256"
        },
        {
          "name": "days_count",
          "type": "uint256"
        },
        {
          "name": "exist",
          "type": "bool"
        }
      ],
      "payable": false,
      "stateMutability": "view",
      "type": "function",
      "signature": "0xa87430ba"
    },
    {
      "constant": true,
      "inputs": [
        {
          "name": "",
          "type": "uint256"
        }
      ],
      "name": "leaves",
      "outputs": [
        {
          "name": "applicant",
          "type": "address"
        },
        {
          "name": "dayCount",
          "type": "uint256"
        },
        {
          "name": "from",
          "type": "uint256"
        },
        {
          "name": "to",
          "type": "uint256"
        },
        {
          "name": "status",
          "type": "uint8"
        }
      ],
      "payable": false,
      "stateMutability": "view",
      "type": "function",
      "signature": "0xd455a79d"
    },
    {
      "constant": true,
      "inputs": [],
      "name": "admin",
      "outputs": [
        {
          "name": "",
          "type": "address"
        }
      ],
      "payable": false,
      "stateMutability": "view",
      "type": "function",
      "signature": "0xf851a440"
    },
    {
      "constant": true,
      "inputs": [
        {
          "name": "x",
          "type": "address"
        }
      ],
      "name": "userExists",
      "outputs": [
        {
          "name": "",
          "type": "bool"
        }
      ],
      "payable": false,
      "stateMutability": "view",
      "type": "function",
      "signature": "0x0e666e49"
    },
    {
      "constant": false,
      "inputs": [
        {
          "name": "idx",
          "type": "uint256"
        }
      ],
      "name": "approve_leave",
      "outputs": [
        {
          "name": "",
          "type": "bool"
        }
      ],
      "payable": false,
      "stateMutability": "nonpayable",
      "type": "function",
      "signature": "0x5c49c2ce"
    },
    {
      "constant": false,
      "inputs": [
        {
          "name": "idx",
          "type": "uint256"
        }
      ],
      "name": "reject_leave",
      "outputs": [
        {
          "name": "",
          "type": "bool"
        }
      ],
      "payable": false,
      "stateMutability": "nonpayable",
      "type": "function",
      "signature": "0x7fc61045"
    },
    {
      "constant": false,
      "inputs": [
        {
          "name": "nname",
          "type": "string"
        },
        {
          "name": "idd",
          "type": "string"
        }
      ],
      "name": "makeadmin",
      "outputs": [
        {
          "name": "",
          "type": "bool"
        }
      ],
      "payable": false,
      "stateMutability": "nonpayable",
      "type": "function",
      "signature": "0xd0358b4a"
    },
    {
      "constant": false,
      "inputs": [
        {
          "name": "useradd",
          "type": "address"
        },
        {
          "name": "nname",
          "type": "string"
        },
        {
          "name": "idd",
          "type": "string"
        }
      ],
      "name": "register",
      "outputs": [
        {
          "name": "",
          "type": "bool"
        }
      ],
      "payable": false,
      "stateMutability": "nonpayable",
      "type": "function",
      "signature": "0x8d59cc02"
    },
    {
      "constant": false,
      "inputs": [
        {
          "name": "no_of_days",
          "type": "uint256"
        },
        {
          "name": "from",
          "type": "uint256"
        },
        {
          "name": "to",
          "type": "uint256"
        }
      ],
      "name": "ask_leave",
      "outputs": [
        {
          "name": "",
          "type": "bool"
        }
      ],
      "payable": false,
      "stateMutability": "nonpayable",
      "type": "function",
      "signature": "0xe071b0b4"
    },
    {
      "constant": false,
      "inputs": [
        {
          "name": "idx",
          "type": "uint256"
        }
      ],
      "name": "cancelLeave",
      "outputs": [
        {
          "name": "",
          "type": "bool"
        }
      ],
      "payable": false,
      "stateMutability": "nonpayable",
      "type": "function",
      "signature": "0x6719dc65"
    },
    {
      "constant": false,
      "inputs": [],
      "name": "toApprove",
      "outputs": [
        {
          "name": "",
          "type": "bool"
        },
        {
          "name": "",
          "type": "uint256[]"
        },
        {
          "name": "",
          "type": "address[]"
        },
        {
          "name": "",
          "type": "uint256[]"
        },
        {
          "name": "",
          "type": "uint256[]"
        },
        {
          "name": "",
          "type": "uint256[]"
        }
      ],
      "payable": false,
      "stateMutability": "nonpayable",
      "type": "function",
      "signature": "0x6958c570"
    },
    {
      "constant": true,
      "inputs": [
        {
          "name": "i",
          "type": "uint256"
        }
      ],
      "name": "showLeave",
      "outputs": [
        {
          "name": "",
          "type": "bool"
        },
        {
          "name": "",
          "type": "address"
        },
        {
          "name": "",
          "type": "uint256"
        },
        {
          "name": "",
          "type": "uint8"
        }
      ],
      "payable": false,
      "stateMutability": "view",
      "type": "function",
      "signature": "0x1a37ebbc"
    },
    {
      "constant": true,
      "inputs": [
        {
          "name": "add",
          "type": "address"
        }
      ],
      "name": "getMyLeaves",
      "outputs": [
        {
          "name": "",
          "type": "bool"
        },
        {
          "name": "",
          "type": "uint256[]"
        },
        {
          "name": "",
          "type": "uint256[]"
        },
        {
          "name": "",
          "type": "uint8[]"
        },
        {
          "name": "",
          "type": "uint256[]"
        },
        {
          "name": "",
          "type": "uint256[]"
        }
      ],
      "payable": false,
      "stateMutability": "view",
      "type": "function",
      "signature": "0x97e7ab7c"
    },
    {
      "constant": true,
      "inputs": [
        {
          "name": "idd",
          "type": "string"
        }
      ],
      "name": "details",
      "outputs": [
        {
          "name": "",
          "type": "bool"
        },
        {
          "name": "",
          "type": "string"
        },
        {
          "name": "",
          "type": "uint256"
        }
      ],
      "payable": false,
      "stateMutability": "view",
      "type": "function",
      "signature": "0xa19556d4"
    }
  ],
  "bytecode": "0x608060405260008060146101000a81548160ff021916908315150217905550601e600060156101000a81548167ffffffffffffffff021916908367ffffffffffffffff160217905550600060045534801561005957600080fd5b50612eb6806100696000396000f3fe6080604052600436106100e6576000357c0100000000000000000000000000000000000000000000000000000000900463ffffffff1680630e666e49146100eb5780631a37ebbc146101545780632fa0d51d146101f65780633d6de50e146102355780635c49c2ce146102645780636719dc65146102b75780636958c5701461030a5780637fc61045146104a15780638d59cc02146104f457806397e7ab7c1461068b578063a19556d41461085c578063a87430ba146109af578063d0358b4a14610b31578063d455a79d14610ca8578063e071b0b414610d4d578063f851a44014610db4575b600080fd5b3480156100f757600080fd5b5061013a6004803603602081101561010e57600080fd5b81019080803573ffffffffffffffffffffffffffffffffffffffff169060200190929190505050610e0b565b604051808215151515815260200191505060405180910390f35b34801561016057600080fd5b5061018d6004803603602081101561017757600080fd5b8101908080359060200190929190505050610e64565b60405180851515151581526020018473ffffffffffffffffffffffffffffffffffffffff1673ffffffffffffffffffffffffffffffffffffffff1681526020018381526020018260038111156101df57fe5b60ff16815260200194505050505060405180910390f35b34801561020257600080fd5b5061020b610f34565b604051808267ffffffffffffffff1667ffffffffffffffff16815260200191505060405180910390f35b34801561024157600080fd5b5061024a610f4e565b604051808215151515815260200191505060405180910390f35b34801561027057600080fd5b5061029d6004803603602081101561028757600080fd5b8101908080359060200190929190505050610f61565b604051808215151515815260200191505060405180910390f35b3480156102c357600080fd5b506102f0600480360360208110156102da57600080fd5b8101908080359060200190929190505050611064565b604051808215151515815260200191505060405180910390f35b34801561031657600080fd5b5061031f6111f5565b6040518087151515158152602001806020018060200180602001806020018060200186810386528b818151815260200191508051906020019060200280838360005b8381101561037c578082015181840152602081019050610361565b5050505090500186810385528a818151815260200191508051906020019060200280838360005b838110156103be5780820151818401526020810190506103a3565b50505050905001868103845289818151815260200191508051906020019060200280838360005b838110156104005780820151818401526020810190506103e5565b50505050905001868103835288818151815260200191508051906020019060200280838360005b83811015610442578082015181840152602081019050610427565b50505050905001868103825287818151815260200191508051906020019060200280838360005b83811015610484578082015181840152602081019050610469565b505050509050019b50505050505050505050505060405180910390f35b3480156104ad57600080fd5b506104da600480360360208110156104c457600080fd5b8101908080359060200190929190505050611903565b604051808215151515815260200191505060405180910390f35b34801561050057600080fd5b506106716004803603606081101561051757600080fd5b81019080803573ffffffffffffffffffffffffffffffffffffffff1690602001909291908035906020019064010000000081111561055457600080fd5b82018360208201111561056657600080fd5b8035906020019184600183028401116401000000008311171561058857600080fd5b91908080601f016020809104026020016040519081016040528093929190818152602001838380828437600081840152601f19601f820116905080830192505050505050509192919290803590602001906401000000008111156105eb57600080fd5b8201836020820111156105fd57600080fd5b8035906020019184600183028401116401000000008311171561061f57600080fd5b91908080601f016020809104026020016040519081016040528093929190818152602001838380828437600081840152601f19601f820116905080830192505050505050509192919290505050611ab5565b604051808215151515815260200191505060405180910390f35b34801561069757600080fd5b506106da600480360360208110156106ae57600080fd5b81019080803573ffffffffffffffffffffffffffffffffffffffff169060200190929190505050611d30565b6040518087151515158152602001806020018060200180602001806020018060200186810386528b818151815260200191508051906020019060200280838360005b8381101561073757808201518184015260208101905061071c565b5050505090500186810385528a818151815260200191508051906020019060200280838360005b8381101561077957808201518184015260208101905061075e565b50505050905001868103845289818151815260200191508051906020019060200280838360005b838110156107bb5780820151818401526020810190506107a0565b50505050905001868103835288818151815260200191508051906020019060200280838360005b838110156107fd5780820151818401526020810190506107e2565b50505050905001868103825287818151815260200191508051906020019060200280838360005b8381101561083f578082015181840152602081019050610824565b505050509050019b50505050505050505050505060405180910390f35b34801561086857600080fd5b506109226004803603602081101561087f57600080fd5b810190808035906020019064010000000081111561089c57600080fd5b8201836020820111156108ae57600080fd5b803590602001918460018302840111640100000000831117156108d057600080fd5b91908080601f016020809104026020016040519081016040528093929190818152602001838380828437600081840152601f19601f8201169050808301925050505050505091929192905050506120b0565b604051808415151515815260200180602001838152602001828103825284818151815260200191508051906020019080838360005b83811015610972578082015181840152602081019050610957565b50505050905090810190601f16801561099f5780820380516001836020036101000a031916815260200191505b5094505050505060405180910390f35b3480156109bb57600080fd5b506109fe600480360360208110156109d257600080fd5b81019080803573ffffffffffffffffffffffffffffffffffffffff1690602001909291905050506124b5565b6040518080602001806020018773ffffffffffffffffffffffffffffffffffffffff1673ffffffffffffffffffffffffffffffffffffffff16815260200186815260200185815260200184151515158152602001838103835289818151815260200191508051906020019080838360005b83811015610a8a578082015181840152602081019050610a6f565b50505050905090810190601f168015610ab75780820380516001836020036101000a031916815260200191505b50838103825288818151815260200191508051906020019080838360005b83811015610af0578082015181840152602081019050610ad5565b50505050905090810190601f168015610b1d5780820380516001836020036101000a031916815260200191505b509850505050505050505060405180910390f35b348015610b3d57600080fd5b50610c8e60048036036040811015610b5457600080fd5b8101908080359060200190640100000000811115610b7157600080fd5b820183602082011115610b8357600080fd5b80359060200191846001830284011164010000000083111715610ba557600080fd5b91908080601f016020809104026020016040519081016040528093929190818152602001838380828437600081840152601f19601f82011690508083019250505050505050919291929080359060200190640100000000811115610c0857600080fd5b820183602082011115610c1a57600080fd5b80359060200191846001830284011164010000000083111715610c3c57600080fd5b91908080601f016020809104026020016040519081016040528093929190818152602001838380828437600081840152601f19601f82011690508083019250505050505050919291929050505061264e565b604051808215151515815260200191505060405180910390f35b348015610cb457600080fd5b50610ce160048036036020811015610ccb57600080fd5b8101908080359060200190929190505050612931565b604051808673ffffffffffffffffffffffffffffffffffffffff1673ffffffffffffffffffffffffffffffffffffffff168152602001858152602001848152602001838152602001826003811115610d3557fe5b60ff1681526020019550505050505060405180910390f35b348015610d5957600080fd5b50610d9a60048036036060811015610d7057600080fd5b810190808035906020019092919080359060200190929190803590602001909291905050506129a3565b604051808215151515815260200191505060405180910390f35b348015610dc057600080fd5b50610dc9612c06565b604051808273ffffffffffffffffffffffffffffffffffffffff1673ffffffffffffffffffffffffffffffffffffffff16815260200191505060405180910390f35b6000600160008373ffffffffffffffffffffffffffffffffffffffff1673ffffffffffffffffffffffffffffffffffffffff16815260200190815260200160002060050160009054906101000a900460ff169050919050565b60008060008060008060028054905087101515610e905760008183600095509550955095505050610f2d565b6001600288815481101515610ea157fe5b906000526020600020906005020160000160009054906101000a900473ffffffffffffffffffffffffffffffffffffffff16600289815481101515610ee257fe5b90600052602060002090600502016001015460028a815481101515610f0357fe5b906000526020600020906005020160040160009054906101000a900460ff16955095509550955050505b9193509193565b600060159054906101000a900467ffffffffffffffff1681565b600060149054906101000a900460ff1681565b60008060009054906101000a900473ffffffffffffffffffffffffffffffffffffffff1673ffffffffffffffffffffffffffffffffffffffff163373ffffffffffffffffffffffffffffffffffffffff16141515610fc2576000905061105f565b60006003811115610fcf57fe5b600283815481101515610fde57fe5b906000526020600020906005020160040160009054906101000a900460ff16600381111561100857fe5b141515611018576000905061105f565b600160028381548110151561102957fe5b906000526020600020906005020160040160006101000a81548160ff0219169083600381111561105557fe5b0217905550600190505b919050565b600060028281548110151561107557fe5b906000526020600020906005020160000160009054906101000a900473ffffffffffffffffffffffffffffffffffffffff1673ffffffffffffffffffffffffffffffffffffffff163373ffffffffffffffffffffffffffffffffffffffff161415156110e457600090506111f0565b600060038111156110f157fe5b60028381548110151561110057fe5b906000526020600020906005020160040160009054906101000a900460ff16600381111561112a57fe5b14156111eb57600360028381548110151561114157fe5b906000526020600020906005020160040160006101000a81548160ff0219169083600381111561116d57fe5b021790555060028281548110151561118157fe5b906000526020600020906005020160010154600160003373ffffffffffffffffffffffffffffffffffffffff1673ffffffffffffffffffffffffffffffffffffffff16815260200190815260200160002060040160008282540392505081905550600190506111f0565b600090505b919050565b600060608060608060606000600280549050905060608060608060608460059080519060200190611227929190612c2b565b50836006908051906020019061123e929190612c78565b508260079080519060200190611255929190612c2b565b50816008908051906020019061126c929190612c2b565b508060099080519060200190611283929190612c2b565b506000809054906101000a900473ffffffffffffffffffffffffffffffffffffffff1673ffffffffffffffffffffffffffffffffffffffff163373ffffffffffffffffffffffffffffffffffffffff161415156114cd576000600560066007600860098480548060200260200160405190810160405280929190818152602001828054801561133157602002820191906000526020600020905b81548152602001906001019080831161131d575b50505050509450838054806020026020016040519081016040528092919081815260200182805480156113b957602002820191906000526020600020905b8160009054906101000a900473ffffffffffffffffffffffffffffffffffffffff1673ffffffffffffffffffffffffffffffffffffffff168152602001906001019080831161136f575b505050505093508280548060200260200160405190810160405280929190818152602001828054801561140b57602002820191906000526020600020905b8154815260200190600101908083116113f7575b505050505092508180548060200260200160405190810160405280929190818152602001828054801561145d57602002820191906000526020600020905b815481526020019060010190808311611449575b50505050509150808054806020026020016040519081016040528092919081815260200182805480156114af57602002820191906000526020600020905b81548152602001906001019080831161149b575b505050505090509b509b509b509b509b509b505050505050506118fb565b600060019050600060045490505b8781101561170a57600060038111156114f057fe5b6002828154811015156114ff57fe5b906000526020600020906005020160040160009054906101000a900460ff16600381111561152957fe5b14156116ee57600091506005819080600181540180825580915050906001820390600052602060002001600090919290919091505550600660028281548110151561157057fe5b906000526020600020906005020160000160009054906101000a900473ffffffffffffffffffffffffffffffffffffffff1690806001815401808255809150509060018203906000526020600020016000909192909190916101000a81548173ffffffffffffffffffffffffffffffffffffffff021916908373ffffffffffffffffffffffffffffffffffffffff16021790555050600760028281548110151561161657fe5b9060005260206000209060050201600101549080600181540180825580915050906001820390600052602060002001600090919290919091505550600860028281548110151561166257fe5b906000526020600020906005020160020154908060018154018082558091505090600182039060005260206000200160009091929091909150555060096002828154811015156116ae57fe5b90600052602060002090600502016003015490806001815401808255809150509060018203906000526020600020016000909192909190915055506116fd565b81156116fc57806004819055505b5b80806001019150506114db565b506001600560066007600860098480548060200260200160405190810160405280929190818152602001828054801561176257602002820191906000526020600020905b81548152602001906001019080831161174e575b50505050509450838054806020026020016040519081016040528092919081815260200182805480156117ea57602002820191906000526020600020905b8160009054906101000a900473ffffffffffffffffffffffffffffffffffffffff1673ffffffffffffffffffffffffffffffffffffffff16815260200190600101908083116117a0575b505050505093508280548060200260200160405190810160405280929190818152602001828054801561183c57602002820191906000526020600020905b815481526020019060010190808311611828575b505050505092508180548060200260200160405190810160405280929190818152602001828054801561188e57602002820191906000526020600020905b81548152602001906001019080831161187a575b50505050509150808054806020026020016040519081016040528092919081815260200182805480156118e057602002820191906000526020600020905b8154815260200190600101908083116118cc575b505050505090509c509c509c509c509c509c50505050505050505b909192939495565b60008060009054906101000a900473ffffffffffffffffffffffffffffffffffffffff1673ffffffffffffffffffffffffffffffffffffffff163373ffffffffffffffffffffffffffffffffffffffff161415156119645760009050611ab0565b6000600381111561197157fe5b60028381548110151561198057fe5b906000526020600020906005020160040160009054906101000a900460ff1660038111156119aa57fe5b1415156119ba5760009050611ab0565b600280838154811015156119ca57fe5b906000526020600020906005020160040160006101000a81548160ff021916908360038111156119f657fe5b0217905550600282815481101515611a0a57fe5b90600052602060002090600502016001015460016000600285815481101515611a2f57fe5b906000526020600020906005020160000160009054906101000a900473ffffffffffffffffffffffffffffffffffffffff1673ffffffffffffffffffffffffffffffffffffffff1673ffffffffffffffffffffffffffffffffffffffff16815260200190815260200160002060040160008282540392505081905550600190505b919050565b60008060009054906101000a900473ffffffffffffffffffffffffffffffffffffffff1673ffffffffffffffffffffffffffffffffffffffff163373ffffffffffffffffffffffffffffffffffffffff16141580611b185750611b1784610e0b565b5b80611b305750600060149054906101000a900460ff16155b15611b3e5760009050611d29565b836003836040518082805190602001908083835b602083101515611b775780518252602082019150602081019050602083039250611b52565b6001836020036101000a038019825116818451168082178552505050505050905001915050908152602001604051809103902060006101000a81548173ffffffffffffffffffffffffffffffffffffffff021916908373ffffffffffffffffffffffffffffffffffffffff16021790555060c0604051908101604052808481526020018381526020018573ffffffffffffffffffffffffffffffffffffffff168152602001600081526020016000815260200160011515815250600160008673ffffffffffffffffffffffffffffffffffffffff1673ffffffffffffffffffffffffffffffffffffffff1681526020019081526020016000206000820151816000019080519060200190611c8c929190612d02565b506020820151816001019080519060200190611ca9929190612d02565b5060408201518160020160006101000a81548173ffffffffffffffffffffffffffffffffffffffff021916908373ffffffffffffffffffffffffffffffffffffffff160217905550606082015181600301556080820151816004015560a08201518160050160006101000a81548160ff0219169083151502179055509050505b9392505050565b600060608060608060606000600160008973ffffffffffffffffffffffffffffffffffffffff1673ffffffffffffffffffffffffffffffffffffffff168152602001908152602001600020600301549050606081604051908082528060200260200182016040528015611db25781602001602082028038833980820191505090505b509050606082604051908082528060200260200182016040528015611de65781602001602082028038833980820191505090505b509050606083604051908082528060200260200182016040528015611e1a5781602001602082028038833980820191505090505b509050606084604051908082528060200260200182016040528015611e4e5781602001602082028038833980820191505090505b509050606085604051908082528060200260200182016040528015611e825781602001602082028038833980820191505090505b5090506000861415611eac57600085858386869b509b509b509b509b509b505050505050506120a7565b6000600187039050600280549050965060008090505b8781101561208b578e73ffffffffffffffffffffffffffffffffffffffff16600282815481101515611ef057fe5b906000526020600020906005020160000160009054906101000a900473ffffffffffffffffffffffffffffffffffffffff1673ffffffffffffffffffffffffffffffffffffffff16141561207e57808783815181101515611f4d57fe5b9060200190602002018181525050600281815481101515611f6a57fe5b9060005260206000209060050201600101548683815181101515611f8a57fe5b9060200190602002018181525050600281815481101515611fa757fe5b9060005260206000209060050201600201548583815181101515611fc757fe5b9060200190602002018181525050600281815481101515611fe457fe5b906000526020600020906005020160030154848381518110151561200457fe5b906020019060200201818152505060028181548110151561202157fe5b906000526020600020906005020160040160009054906101000a900460ff16838381518110151561204e57fe5b90602001906020020190600381111561206357fe5b9081600381111561207057fe5b815250508180600190039250505b8080600101915050611ec2565b50600186868487879c509c509c509c509c509c50505050505050505b91939550919395565b6000606060008060009054906101000a900473ffffffffffffffffffffffffffffffffffffffff1673ffffffffffffffffffffffffffffffffffffffff163373ffffffffffffffffffffffffffffffffffffffff1614151561211157600080fd5b60606000600115156121ad6003886040518082805190602001908083835b602083101515612154578051825260208201915060208101905060208303925061212f565b6001836020036101000a038019825116818451168082178552505050505050905001915050908152602001604051809103902060009054906101000a900473ffffffffffffffffffffffffffffffffffffffff16610e0b565b15151415156121c7576000828294509450945050506124ae565b6121cf612d82565b600160006003896040518082805190602001908083835b60208310151561220b57805182526020820191506020810190506020830392506121e6565b6001836020036101000a038019825116818451168082178552505050505050905001915050908152602001604051809103902060009054906101000a900473ffffffffffffffffffffffffffffffffffffffff1673ffffffffffffffffffffffffffffffffffffffff1673ffffffffffffffffffffffffffffffffffffffff16815260200190815260200160002060c06040519081016040529081600082018054600181600116156101000203166002900480601f01602080910402602001604051908101604052809291908181526020018280546001816001161561010002031660029004801561233e5780601f106123135761010080835404028352916020019161233e565b820191906000526020600020905b81548152906001019060200180831161232157829003601f168201915b50505050508152602001600182018054600181600116156101000203166002900480601f0160208091040260200160405190810160405280929190818152602001828054600181600116156101000203166002900480156123e05780601f106123b5576101008083540402835291602001916123e0565b820191906000526020600020905b8154815290600101906020018083116123c357829003601f168201915b505050505081526020016002820160009054906101000a900473ffffffffffffffffffffffffffffffffffffffff1673ffffffffffffffffffffffffffffffffffffffff1673ffffffffffffffffffffffffffffffffffffffff16815260200160038201548152602001600482015481526020016005820160009054906101000a900460ff1615151515815250509050806000015192508060800151600060159054906101000a900467ffffffffffffffff1667ffffffffffffffff16039150600183839550955095505050505b9193909250565b6001602052806000526040600020600091509050806000018054600181600116156101000203166002900480601f0160208091040260200160405190810160405280929190818152602001828054600181600116156101000203166002900480156125615780601f1061253657610100808354040283529160200191612561565b820191906000526020600020905b81548152906001019060200180831161254457829003601f168201915b505050505090806001018054600181600116156101000203166002900480601f0160208091040260200160405190810160405280929190818152602001828054600181600116156101000203166002900480156125ff5780601f106125d4576101008083540402835291602001916125ff565b820191906000526020600020905b8154815290600101906020018083116125e257829003601f168201915b5050505050908060020160009054906101000a900473ffffffffffffffffffffffffffffffffffffffff16908060030154908060040154908060050160009054906101000a900460ff16905086565b600061265933610e0b565b806126705750600060149054906101000a900460ff165b1561267e576000905061292b565b336000806101000a81548173ffffffffffffffffffffffffffffffffffffffff021916908373ffffffffffffffffffffffffffffffffffffffff1602179055506000809054906101000a900473ffffffffffffffffffffffffffffffffffffffff166003836040518082805190602001908083835b60208310151561271857805182526020820191506020810190506020830392506126f3565b6001836020036101000a038019825116818451168082178552505050505050905001915050908152602001604051809103902060006101000a81548173ffffffffffffffffffffffffffffffffffffffff021916908373ffffffffffffffffffffffffffffffffffffffff1602179055506001600060146101000a81548160ff02191690831515021790555060c0604051908101604052808481526020018381526020016000809054906101000a900473ffffffffffffffffffffffffffffffffffffffff1673ffffffffffffffffffffffffffffffffffffffff168152602001600081526020016000815260200160011515815250600160008060009054906101000a900473ffffffffffffffffffffffffffffffffffffffff1673ffffffffffffffffffffffffffffffffffffffff1673ffffffffffffffffffffffffffffffffffffffff168152602001908152602001600020600082015181600001908051906020019061288a929190612d02565b5060208201518160010190805190602001906128a7929190612d02565b5060408201518160020160006101000a81548173ffffffffffffffffffffffffffffffffffffffff021916908373ffffffffffffffffffffffffffffffffffffffff160217905550606082015181600301556080820151816004015560a08201518160050160006101000a81548160ff021916908315150217905550905050600190505b92915050565b60028181548110151561294057fe5b90600052602060002090600502016000915090508060000160009054906101000a900473ffffffffffffffffffffffffffffffffffffffff16908060010154908060020154908060030154908060040160009054906101000a900460ff16905085565b600083600160003373ffffffffffffffffffffffffffffffffffffffff1673ffffffffffffffffffffffffffffffffffffffff16815260200190815260200160002060040154600060159054906101000a900467ffffffffffffffff1667ffffffffffffffff160310151515612a1857600080fd5b612a20612dd1565b33816000019073ffffffffffffffffffffffffffffffffffffffff16908173ffffffffffffffffffffffffffffffffffffffff1681525050848160200181815250508381604001818152505082816060018181525050600081608001906003811115612a8857fe5b90816003811115612a9557fe5b8152505084600160003373ffffffffffffffffffffffffffffffffffffffff1673ffffffffffffffffffffffffffffffffffffffff168152602001908152602001600020600401600082825401925050819055506002819080600181540180825580915050906001820390600052602060002090600502016000909192909190915060008201518160000160006101000a81548173ffffffffffffffffffffffffffffffffffffffff021916908373ffffffffffffffffffffffffffffffffffffffff16021790555060208201518160010155604082015181600201556060820151816003015560808201518160040160006101000a81548160ff02191690836003811115612ba057fe5b0217905550505050600160003373ffffffffffffffffffffffffffffffffffffffff1673ffffffffffffffffffffffffffffffffffffffff1681526020019081526020016000206003016000815480929190600101919050555060019150509392505050565b6000809054906101000a900473ffffffffffffffffffffffffffffffffffffffff1681565b828054828255906000526020600020908101928215612c67579160200282015b82811115612c66578251825591602001919060010190612c4b565b5b509050612c749190612e22565b5090565b828054828255906000526020600020908101928215612cf1579160200282015b82811115612cf05782518260006101000a81548173ffffffffffffffffffffffffffffffffffffffff021916908373ffffffffffffffffffffffffffffffffffffffff16021790555091602001919060010190612c98565b5b509050612cfe9190612e47565b5090565b828054600181600116156101000203166002900490600052602060002090601f016020900481019282601f10612d4357805160ff1916838001178555612d71565b82800160010185558215612d71579182015b82811115612d70578251825591602001919060010190612d55565b5b509050612d7e9190612e22565b5090565b60c0604051908101604052806060815260200160608152602001600073ffffffffffffffffffffffffffffffffffffffff16815260200160008152602001600081526020016000151581525090565b60a060405190810160405280600073ffffffffffffffffffffffffffffffffffffffff16815260200160008152602001600081526020016000815260200160006003811115612e1c57fe5b81525090565b612e4491905b80821115612e40576000816000905550600101612e28565b5090565b90565b612e8791905b80821115612e8357600081816101000a81549073ffffffffffffffffffffffffffffffffffffffff021916905550600101612e4d565b5090565b9056fea165627a7a72305820d56c10929b3f61dee785d2a50ac3a47a94bea155fba15570d2e1d90799f88f3f0029",
  "source": "/*Solidity Smart Contract for Leave Management System\r\nContributors::\r\nAmit Priyankar(1701CS04)\r\nAnkur Dubey(1701CS07)\r\nAtul Upadhyay(1701CS13)\r\nB.Tech Second Year, IIT Patna\r\n2019\r\n*/\r\npragma solidity >=0.4.22 <0.6.0;\r\n\r\ncontract Leave\r\n{\r\n    struct user\r\n    {\r\n        string name;\r\n        string id;\r\n        address account;\r\n        uint leave_count;//no of leaves taken\r\n        uint days_count;//no of days of leaves\r\n        bool exist;\r\n    }//there can be need to store the leave ledger number for the different leaves of an user\r\n    \r\n    struct leavedetail\r\n    {\r\n        address applicant;\r\n        uint dayCount;//number of days in a particular leave\r\n        uint from;\r\n        uint to;\r\n        leavestatus status;\r\n    }\r\n\r\n    enum leavestatus\r\n    {\r\n        APPLIED, APPROVED, REJECTED, CANCELLED\r\n    }\r\n    \r\n    address public admin;//address which will be registered first\r\n    bool public adminDone=false;\r\n    uint64 public max_leave = 30;//maximum number of leaves that can be taken in a year\r\n\r\n    mapping(address=>user) public users;\r\n    leavedetail[] public leaves;\r\n    mapping(string=>address) fetch;//mapping from employee ID to the address of an employee\r\n    uint reached=0;\r\n\r\n    function userExists(address x) public view returns (bool)\r\n    {\r\n        return users[x].exist;\r\n    }\r\n\r\n    function approve_leave(uint idx) public returns (bool)\r\n    {\r\n        if(msg.sender!=admin)return false;\r\n        else if (leaves[idx].status!=leavestatus.APPLIED)return false;\r\n        leaves[idx].status=leavestatus.APPROVED;\r\n        return true;\r\n    }\r\n\r\n    function reject_leave(uint idx) public returns (bool)\r\n    {\r\n        if(msg.sender!=admin)return false;\r\n        else if (leaves[idx].status!=leavestatus.APPLIED) return false;\r\n        leaves[idx].status=leavestatus.REJECTED;\r\n        users[leaves[idx].applicant].days_count-=leaves[idx].dayCount;\r\n        return true;\r\n    }\r\n\r\n    //set admin\r\n    function makeadmin(string memory nname, string memory idd) public returns (bool)\r\n    {\r\n        if(userExists(msg.sender)||adminDone)return false;\r\n        admin=msg.sender;\r\n        fetch[idd]=admin;\r\n        adminDone=true;//admin is now registered\r\n        users[admin]=user({\r\n            name: nname,\r\n            id: idd,\r\n            account: admin,\r\n            leave_count:0, \r\n            days_count:0,\r\n            exist:true\r\n        });\r\n        return true;\r\n    }\r\n\r\n    //register new user\r\n    function register(address useradd, string memory nname, string memory idd) public returns (bool)\r\n    {\r\n        if(msg.sender!=admin||userExists(useradd)||!adminDone)return false;\r\n        fetch[idd]=useradd;\r\n        users[useradd]=user({\r\n            name: nname,\r\n            id:idd, \r\n            account: useradd, \r\n            leave_count:0, \r\n            days_count:0,\r\n            exist:true\r\n        });\r\n    }\r\n\r\n    function ask_leave(uint no_of_days, uint from, uint to) public returns (bool)\r\n    {\r\n        require(max_leave - users[msg.sender].days_count >= no_of_days);\r\n        \r\n        leavedetail memory temp;\r\n        temp.applicant=msg.sender;\r\n        temp.dayCount=no_of_days;\r\n        temp.from = from;\r\n        temp.to = to;\r\n        temp.status=leavestatus.APPLIED;\r\n        users[msg.sender].days_count+=no_of_days;\r\n        leaves.push(temp);\r\n        \r\n        users[msg.sender].leave_count++;\r\n        return true;\r\n    }\r\n    function cancelLeave(uint idx) public returns (bool)\r\n    {\r\n        if(msg.sender!=leaves[idx].applicant)return false;\r\n        else if(leaves[idx].status==leavestatus.APPLIED)\r\n        {\r\n            leaves[idx].status=leavestatus.CANCELLED;\r\n            users[msg.sender].days_count-=leaves[idx].dayCount;\r\n            return true;\r\n        }\r\n        else return false;\r\n    }\r\n    // function getAllLeaves() public view returns (bool, address[] memory, uint[] memory, leavestatus[] memory)\r\n    // {\r\n    //     uint size=leaves.length;\r\n        \r\n    //     address[] memory tempAddress=new address[](size);\r\n    //     uint[] memory tempDays = new uint[](size);\r\n    //     leavestatus[] memory tempLeaveStatus= new leavestatus[](size);\r\n        \r\n    //     if(msg.sender!=admin)\r\n    //     {\r\n    //         return (false, tempAddress, tempDays, tempLeaveStatus);\r\n    //     }\r\n\r\n    //     for(uint i=0; i<size;i++)\r\n    //     {\r\n    //         tempAddress[i]=leaves[i].applicant;\r\n    //         tempDays[i]=leaves[i].dayCount;\r\n    //         tempLeaveStatus[i]=leaves[i].status;\r\n    //     }\r\n    //     return (true, tempAddress, tempDays, tempLeaveStatus);\r\n\r\n    // }\r\n    uint[] tempIndex;\r\n    address[] tempAdd;\r\n    uint[] tempDays;\r\n    uint[] tempfrom;\r\n    uint[] tempto;\r\n    function toApprove() public returns (bool, uint[] memory, address[] memory, uint[] memory, uint[] memory, uint[] memory)\r\n    {\r\n        uint size=leaves.length;\r\n        \r\n        uint[] memory ttempIndex;\r\n        address[] memory ttempAdd;\r\n        uint[] memory ttempDays;\r\n        uint[] memory ttempfrom;\r\n        uint[] memory ttempto;\r\n        \r\n        tempIndex=ttempIndex;\r\n        tempAdd=ttempAdd;\r\n        tempDays=ttempDays;\r\n        tempfrom = ttempfrom;\r\n        tempto = ttempto;\r\n        \r\n        if(msg.sender!=admin)\r\n        {\r\n            return (false, tempIndex, tempAdd, tempDays, tempfrom, tempto);\r\n        }\r\n        bool ok=true;\r\n        for(uint i=reached; i<size;i++)\r\n        {\r\n            if(leaves[i].status==leavestatus.APPLIED)\r\n            {\r\n                ok=false;\r\n                tempIndex.push(i);\r\n                tempAdd.push(leaves[i].applicant);\r\n                // tempName.push(users[leaves[i].applicant].name);\r\n                // tempId.push(users[leaves[i].applicant].id);\r\n                tempDays.push(leaves[i].dayCount);\r\n                tempfrom.push(leaves[i].from);\r\n                tempto.push(leaves[i].to);\r\n                // tempLeaveStatus.push(leaves[i].status);\r\n            }\r\n            else if(ok)reached=i;\r\n        }\r\n        return (true, tempIndex, tempAdd, tempDays, tempfrom, tempto);\r\n    }\r\n\r\n    function showLeave(uint i) public view returns (bool, address, uint, leavestatus) \r\n    {\r\n\t\tuint temp1;\r\n\t\taddress temp2;\r\n\t\tif(i>=leaves.length)return (false, temp2, temp1, leavestatus.APPLIED);\r\n\t\treturn (true, leaves[i].applicant, leaves[i].dayCount, leaves[i].status);\r\n\t}\r\n    \r\n    function getMyLeaves(address add) public view returns (bool, uint[] memory, uint[] memory, leavestatus[] memory, uint[] memory, uint[] memory) \r\n    {\r\n\t\tuint size = users[add].leave_count;\r\n        uint[] memory ttempIndex = new uint[](size);\r\n\t\tuint[] memory ttempDays = new uint[](size);\r\n\t\tuint[] memory ttempfrom = new uint[](size);\r\n\t\tuint[] memory ttempto = new uint[](size);\r\n\t\tleavestatus[] memory tempLeaveStatus = new leavestatus[](size);\r\n\t\t\r\n        if(size==0)return (false, ttempIndex, ttempDays, tempLeaveStatus, ttempfrom, ttempto);\r\n\t\tuint ct=size-1;\r\n\t\tsize = leaves.length;\r\n\t\tfor (uint i=0;i<size;i++){\r\n\t\t\tif(leaves[i].applicant == add)\r\n            {\r\n                ttempIndex[ct]=i;\r\n\t\t\t\t// tempAddress[ct]=leaves[i].applicant;\r\n\t\t\t\tttempDays[ct]=leaves[i].dayCount;\r\n\t\t\t\tttempfrom[ct]=leaves[i].from;\r\n\t\t\t\tttempto[ct]=leaves[i].to;\r\n\t\t\t\ttempLeaveStatus[ct]=leaves[i].status;\r\n\t\t\t\tct--;\t\r\n\t\t\t}\r\n\t\t}\r\n\t\treturn (true, ttempIndex, ttempDays, tempLeaveStatus, ttempfrom, ttempto);\r\n\t}//this can be optimisted by using a mapping which stores the indexes of leaves of all the user\r\n\r\n    //fetch details of a user\r\n    function details(string memory idd) public view returns (bool, string memory, uint)\r\n    {\r\n        require(msg.sender == admin);\r\n        string memory tempName;\r\n        // uint leaveCount;\r\n        uint daysCount;//number of days remaining\r\n        if(userExists(fetch[idd])!=true)return (false, tempName, daysCount);\r\n        user memory temp=users[fetch[idd]];\r\n        tempName=temp.name;\r\n        // leaveCount=temp.leave_count;\r\n        daysCount= max_leave - temp.days_count;\r\n        return (true, tempName, daysCount);\r\n    }\r\n}\r\n",
  "sourcePath": "/mnt/d/Solidity/Leave-Management-System/contracts/Leave.sol",
  "compiler": {
    "name": "solc",
    "version": "0.5.0+commit.1d4f565a.Emscripten.clang"
  },
  "schemaVersion": "3.0.8",
  "updatedAt": "2019-05-02T19:29:53.979Z",
  "devdoc": {
    "methods": {}
  },
  "userdoc": {
    "methods": {}
  }
}