{
  "contractName": "Leave",
  "abi": [
    {
      "constant": true,
      "inputs": [],
      "name": "admindone",
      "outputs": [
        {
          "name": "",
          "type": "bool"
        }
      ],
      "payable": false,
      "stateMutability": "view",
      "type": "function",
      "signature": "0x35d65e46"
    },
    {
      "constant": true,
      "inputs": [],
      "name": "admin",
      "outputs": [
        {
          "name": "",
          "type": "address"
        }
      ],
      "payable": false,
      "stateMutability": "view",
      "type": "function",
      "signature": "0xf851a440"
    },
    {
      "constant": false,
      "inputs": [
        {
          "name": "nname",
          "type": "string"
        },
        {
          "name": "idd",
          "type": "string"
        }
      ],
      "name": "makeadmin",
      "outputs": [],
      "payable": false,
      "stateMutability": "nonpayable",
      "type": "function",
      "signature": "0xd0358b4a"
    },
    {
      "constant": false,
      "inputs": [
        {
          "name": "count",
          "type": "uint64"
        }
      ],
      "name": "setmaxleave",
      "outputs": [],
      "payable": false,
      "stateMutability": "nonpayable",
      "type": "function",
      "signature": "0x834c70cc"
    },
    {
      "constant": false,
      "inputs": [
        {
          "name": "toPerson",
          "type": "address"
        },
        {
          "name": "nname",
          "type": "string"
        },
        {
          "name": "idd",
          "type": "string"
        }
      ],
      "name": "register",
      "outputs": [],
      "payable": false,
      "stateMutability": "nonpayable",
      "type": "function",
      "signature": "0x8d59cc02"
    },
    {
      "constant": true,
      "inputs": [],
      "name": "ask_available",
      "outputs": [
        {
          "name": "days_available",
          "type": "uint64"
        }
      ],
      "payable": false,
      "stateMutability": "view",
      "type": "function",
      "signature": "0xc6d20b67"
    },
    {
      "constant": false,
      "inputs": [
        {
          "name": "count_days",
          "type": "uint64"
        }
      ],
      "name": "ask_leave",
      "outputs": [
        {
          "name": "reply",
          "type": "int8"
        }
      ],
      "payable": false,
      "stateMutability": "nonpayable",
      "type": "function",
      "signature": "0xd84c1641"
    },
    {
      "constant": true,
      "inputs": [
        {
          "name": "idd",
          "type": "string"
        }
      ],
      "name": "details",
      "outputs": [
        {
          "name": "name",
          "type": "string"
        },
        {
          "name": "id",
          "type": "string"
        },
        {
          "name": "leave_count",
          "type": "uint64"
        }
      ],
      "payable": false,
      "stateMutability": "view",
      "type": "function",
      "signature": "0xa19556d4"
    }
  ],
  "bytecode": "0x6080604052600080601c6101000a81548160ff02191690831515021790555034801561002a57600080fd5b506115948061003a6000396000f3fe60806040526004361061008e576000357c0100000000000000000000000000000000000000000000000000000000900463ffffffff16806335d65e4614610093578063834c70cc146100c25780638d59cc0214610107578063a19556d414610286578063c6d20b671461044e578063d0358b4a1461048d578063d84c1641146105ec578063f851a4401461064b575b600080fd5b34801561009f57600080fd5b506100a86106a2565b604051808215151515815260200191505060405180910390f35b3480156100ce57600080fd5b50610105600480360360208110156100e557600080fd5b81019080803567ffffffffffffffff1690602001909291905050506106b5565b005b34801561011357600080fd5b506102846004803603606081101561012a57600080fd5b81019080803573ffffffffffffffffffffffffffffffffffffffff1690602001909291908035906020019064010000000081111561016757600080fd5b82018360208201111561017957600080fd5b8035906020019184600183028401116401000000008311171561019b57600080fd5b91908080601f016020809104026020016040519081016040528093929190818152602001838380828437600081840152601f19601f820116905080830192505050505050509192919290803590602001906401000000008111156101fe57600080fd5b82018360208201111561021057600080fd5b8035906020019184600183028401116401000000008311171561023257600080fd5b91908080601f016020809104026020016040519081016040528093929190818152602001838380828437600081840152601f19601f82011690508083019250505050505050919291929050505061073c565b005b34801561029257600080fd5b5061034c600480360360208110156102a957600080fd5b81019080803590602001906401000000008111156102c657600080fd5b8201836020820111156102d857600080fd5b803590602001918460018302840111640100000000831117156102fa57600080fd5b91908080601f016020809104026020016040519081016040528093929190818152602001838380828437600081840152601f19601f820116905080830192505050505050509192919290505050610a6c565b6040518080602001806020018467ffffffffffffffff1667ffffffffffffffff168152602001838103835286818151815260200191508051906020019080838360005b838110156103aa57808201518184015260208101905061038f565b50505050905090810190601f1680156103d75780820380516001836020036101000a031916815260200191505b50838103825285818151815260200191508051906020019080838360005b838110156104105780820151818401526020810190506103f5565b50505050905090810190601f16801561043d5780820380516001836020036101000a031916815260200191505b509550505050505060405180910390f35b34801561045a57600080fd5b50610463610d77565b604051808267ffffffffffffffff1667ffffffffffffffff16815260200191505060405180910390f35b34801561049957600080fd5b506105ea600480360360408110156104b057600080fd5b81019080803590602001906401000000008111156104cd57600080fd5b8201836020820111156104df57600080fd5b8035906020019184600183028401116401000000008311171561050157600080fd5b91908080601f016020809104026020016040519081016040528093929190818152602001838380828437600081840152601f19601f8201169050808301925050505050505091929192908035906020019064010000000081111561056457600080fd5b82018360208201111561057657600080fd5b8035906020019184600183028401116401000000008311171561059857600080fd5b91908080601f016020809104026020016040519081016040528093929190818152602001838380828437600081840152601f19601f820116905080830192505050505050509192919290505050610e51565b005b3480156105f857600080fd5b5061062f6004803603602081101561060f57600080fd5b81019080803567ffffffffffffffff1690602001909291905050506111ec565b604051808260000b60000b815260200191505060405180910390f35b34801561065757600080fd5b5061066061149d565b604051808273ffffffffffffffffffffffffffffffffffffffff1673ffffffffffffffffffffffffffffffffffffffff16815260200191505060405180910390f35b6000601c9054906101000a900460ff1681565b600060089054906101000a900473ffffffffffffffffffffffffffffffffffffffff1673ffffffffffffffffffffffffffffffffffffffff163373ffffffffffffffffffffffffffffffffffffffff1614151561071157600080fd5b806000806101000a81548167ffffffffffffffff021916908367ffffffffffffffff16021790555050565b600060089054906101000a900473ffffffffffffffffffffffffffffffffffffffff1673ffffffffffffffffffffffffffffffffffffffff163373ffffffffffffffffffffffffffffffffffffffff161415806107e9575060011515600260008573ffffffffffffffffffffffffffffffffffffffff1673ffffffffffffffffffffffffffffffffffffffff16815260200190815260200160002060009054906101000a900460ff161515145b156107f357600080fd5b81600160008573ffffffffffffffffffffffffffffffffffffffff1673ffffffffffffffffffffffffffffffffffffffff16815260200190815260200160002060000190805190602001906108499291906114c3565b5080600160008573ffffffffffffffffffffffffffffffffffffffff1673ffffffffffffffffffffffffffffffffffffffff16815260200190815260200160002060010190805190602001906108a09291906114c3565b5060018060008573ffffffffffffffffffffffffffffffffffffffff1673ffffffffffffffffffffffffffffffffffffffff16815260200190815260200160002060020160006101000a81548160ff0219169083151502179055506000600160008573ffffffffffffffffffffffffffffffffffffffff1673ffffffffffffffffffffffffffffffffffffffff16815260200190815260200160002060020160016101000a81548167ffffffffffffffff021916908367ffffffffffffffff1602179055506001600260008573ffffffffffffffffffffffffffffffffffffffff1673ffffffffffffffffffffffffffffffffffffffff16815260200190815260200160002060006101000a81548160ff021916908315150217905550826003826040518082805190602001908083835b6020831015156109f657805182526020820191506020810190506020830392506109d1565b6001836020036101000a038019825116818451168082178552505050505050905001915050908152602001604051809103902060006101000a81548173ffffffffffffffffffffffffffffffffffffffff021916908373ffffffffffffffffffffffffffffffffffffffff160217905550505050565b60608060008060089054906101000a900473ffffffffffffffffffffffffffffffffffffffff1673ffffffffffffffffffffffffffffffffffffffff163373ffffffffffffffffffffffffffffffffffffffff16141515610acc57600080fd5b60006003856040518082805190602001908083835b602083101515610b065780518252602082019150602081019050602083039250610ae1565b6001836020036101000a038019825116818451168082178552505050505050905001915050908152602001604051809103902060009054906101000a900473ffffffffffffffffffffffffffffffffffffffff169050600160008273ffffffffffffffffffffffffffffffffffffffff1673ffffffffffffffffffffffffffffffffffffffff1681526020019081526020016000206000018054600181600116156101000203166002900480601f016020809104026020016040519081016040528092919081815260200182805460018160011615610100020316600290048015610c325780601f10610c0757610100808354040283529160200191610c32565b820191906000526020600020905b815481529060010190602001808311610c1557829003601f168201915b50505050509350600160008273ffffffffffffffffffffffffffffffffffffffff1673ffffffffffffffffffffffffffffffffffffffff1681526020019081526020016000206001018054600181600116156101000203166002900480601f016020809104026020016040519081016040528092919081815260200182805460018160011615610100020316600290048015610d0f5780601f10610ce457610100808354040283529160200191610d0f565b820191906000526020600020905b815481529060010190602001808311610cf257829003601f168201915b50505050509250600160008273ffffffffffffffffffffffffffffffffffffffff1673ffffffffffffffffffffffffffffffffffffffff16815260200190815260200160002060020160019054906101000a900467ffffffffffffffff169150509193909250565b600060011515600260003373ffffffffffffffffffffffffffffffffffffffff1673ffffffffffffffffffffffffffffffffffffffff16815260200190815260200160002060009054906101000a900460ff161515141515610dd857600080fd5b6000339050600160008273ffffffffffffffffffffffffffffffffffffffff1673ffffffffffffffffffffffffffffffffffffffff16815260200190815260200160002060020160019054906101000a900467ffffffffffffffff166000809054906101000a900467ffffffffffffffff160391505090565b33600060086101000a81548173ffffffffffffffffffffffffffffffffffffffff021916908373ffffffffffffffffffffffffffffffffffffffff16021790555081600160008060089054906101000a900473ffffffffffffffffffffffffffffffffffffffff1673ffffffffffffffffffffffffffffffffffffffff1673ffffffffffffffffffffffffffffffffffffffff1681526020019081526020016000206000019080519060200190610f099291906114c3565b5080600160008060089054906101000a900473ffffffffffffffffffffffffffffffffffffffff1673ffffffffffffffffffffffffffffffffffffffff1673ffffffffffffffffffffffffffffffffffffffff1681526020019081526020016000206001019080519060200190610f819291906114c3565b5060018060008060089054906101000a900473ffffffffffffffffffffffffffffffffffffffff1673ffffffffffffffffffffffffffffffffffffffff1673ffffffffffffffffffffffffffffffffffffffff16815260200190815260200160002060020160006101000a81548160ff0219169083151502179055506000600160008060089054906101000a900473ffffffffffffffffffffffffffffffffffffffff1673ffffffffffffffffffffffffffffffffffffffff1673ffffffffffffffffffffffffffffffffffffffff16815260200190815260200160002060020160016101000a81548167ffffffffffffffff021916908367ffffffffffffffff1602179055506001600260008060089054906101000a900473ffffffffffffffffffffffffffffffffffffffff1673ffffffffffffffffffffffffffffffffffffffff1673ffffffffffffffffffffffffffffffffffffffff16815260200190815260200160002060006101000a81548160ff021916908315150217905550600060089054906101000a900473ffffffffffffffffffffffffffffffffffffffff166003826040518082805190602001908083835b60208310151561115c5780518252602082019150602081019050602083039250611137565b6001836020036101000a038019825116818451168082178552505050505050905001915050908152602001604051809103902060006101000a81548173ffffffffffffffffffffffffffffffffffffffff021916908373ffffffffffffffffffffffffffffffffffffffff16021790555060016000601c6101000a81548160ff0219169083151502179055505050565b600060011515600260003373ffffffffffffffffffffffffffffffffffffffff1673ffffffffffffffffffffffffffffffffffffffff16815260200190815260200160002060009054906101000a900460ff16151514151561124d57600080fd5b600033905060001515600160008373ffffffffffffffffffffffffffffffffffffffff1673ffffffffffffffffffffffffffffffffffffffff16815260200190815260200160002060020160009054906101000a900460ff16151514156112b75760009150611497565b6000809054906101000a900467ffffffffffffffff1667ffffffffffffffff1683600160008473ffffffffffffffffffffffffffffffffffffffff1673ffffffffffffffffffffffffffffffffffffffff16815260200190815260200160002060020160019054906101000a900467ffffffffffffffff160167ffffffffffffffff161115156114915782600160008373ffffffffffffffffffffffffffffffffffffffff1673ffffffffffffffffffffffffffffffffffffffff16815260200190815260200160002060020160018282829054906101000a900467ffffffffffffffff160192506101000a81548167ffffffffffffffff021916908367ffffffffffffffff1602179055506000600160008373ffffffffffffffffffffffffffffffffffffffff1673ffffffffffffffffffffffffffffffffffffffff16815260200190815260200160002060020160019054906101000a900467ffffffffffffffff1667ffffffffffffffff161415611488576000600160008373ffffffffffffffffffffffffffffffffffffffff1673ffffffffffffffffffffffffffffffffffffffff16815260200190815260200160002060020160006101000a81548160ff0219169083151502179055505b60019150611496565b600391505b5b50919050565b600060089054906101000a900473ffffffffffffffffffffffffffffffffffffffff1681565b828054600181600116156101000203166002900490600052602060002090601f016020900481019282601f1061150457805160ff1916838001178555611532565b82800160010185558215611532579182015b82811115611531578251825591602001919060010190611516565b5b50905061153f9190611543565b5090565b61156591905b80821115611561576000816000905550600101611549565b5090565b9056fea165627a7a7230582066ed73e950ee9897642b2bea588987354784c8d9846c620511beddc52f0dfd530029",
  "source": "/*Important bugs to be addressed\n\n3) ask_leave function is to be made more dynamic and interactive\nso that if lesser number of leaves are available then it can ask\nif the person agrees to take that much of leave\n\n4)On testing this on remix IDE, number of leaves available with admin \nshows up to be 50 all the time, this has to be fixed\n\n5)need to change the visibilities of various functions\n\n*/\n\n/*Solidity Smart Contract for Leave Management System\nContributors::\nAmit Priyankar(1701CS04)\nAnkur Dubey(1701CS07)\nAtul Upadhyay(1701CS13)\nB.Tech Second Year, IIT Patna\n*/\n\npragma solidity >=0.4.22 <0.6.0;\n\ncontract Leave\n{\n    struct Person\n    {\n        string name;//name of the person\n        string id;// identity card number\n        bool available;//if there is chance of taking leave\n        uint64 leave_count;//number of leaves taken till date\n    }\n\n    uint64 max_leave;//maximum number of leaves that can be taken in a year\n    \n    address public admin;//the person who can register someone into the database\n    \n    bool public admindone=false;//checks if admin is there(added later)\n\n    mapping(address=>Person) person;//mapping address to the person\n    mapping(address=>bool) registered;//this store if the person is registered in the database\n    \n    \n    mapping(string=>address)emp_details;//added later\n\n    function makeadmin(string memory nname, string memory idd) public\n    {\n        //following steps are just the registration of admin with all his details\n        admin=msg.sender;//registering admin as the sender of the argument to this function\n        person[admin].name=nname;\n        person[admin].id=idd;\n        person[admin].available=true;\n        person[admin].leave_count=0;\n        registered[admin]=true;\n        emp_details[idd]=admin;\n        admindone=true;\n    }\n    function setmaxleave(uint64 count) public//function to set the maximum number of leaves that can be taken\n    {\n        if(msg.sender!=admin){revert();}\n        max_leave=count;\n    }\n    //function to register a new person to the database\n    function register(address toPerson, string memory nname, string memory idd) public\n    {\n        if(msg.sender!=admin||registered[toPerson]==true){revert();}\n        \n        person[toPerson].name=nname;\n        person[toPerson].id=idd;\n        person[toPerson].available=true;\n        person[toPerson].leave_count=0;\n        registered[toPerson]=true;\n        emp_details[idd]=toPerson;\n    }\n    //function for a person to check number of days available for him to take a leave\n    function ask_available() public view returns (uint64 days_available)\n    {\n        require(registered[msg.sender]==true);\n        address temp;\n        temp=msg.sender;\n        \n        \n        //it is to be checked here if the person asking\n        //for leave is there in the database\n        days_available=max_leave-person[temp].leave_count;\n        //can also return multiple values here if we want to give \n        //any kind of message to the user asking for leave\n    }\n    \n    \n    //for this function some special arrangements are to be made to print\n    //the message corresponding to the integer reply\n    function ask_leave(uint64 count_days) public returns (int8 reply)//function for person to ask leave\n    {\n        require(registered[msg.sender]==true);\n        address temp;\n        temp=msg.sender;\n    \n        //it is to be checked if the person asking for\n        //leave is actually registered in the database\n        if(person[temp].available==false)reply=0;\n        else if(person[temp].leave_count+count_days<=max_leave)\n        {\n            person[temp].leave_count+=count_days;\n            if(person[temp].leave_count==0)person[temp].available=false;\n            reply=1;\n        }\n        else reply=3;\n    }\n\n    function details(string memory idd) view public returns (string memory name, string memory id, uint64 leave_count)\n    {\n        require(msg.sender==admin);\n        address temp=emp_details[idd];\n        name=person[temp].name;\n        id=person[temp].id;\n        leave_count=person[temp].leave_count;\n    }\n\n}\n\n/*\nto call a function inside another function we can define a library of functions as shown below\n\npragma solidity ^0.4.13;\n\ncontract test {\n\n    uint public fee; \n    function setFee(uint _fee){\n      fee = Sf.mul(_fee,10);\n    }\n\n}\n\n\nlibrary Sf{\n\n  function mul(uint256 a, uint256 b) internal constant returns (uint256) {\n    uint256 c = a * b;\n    assert(a == 0 || c / a == b);\n    return c;\n  }\n\n\n}\n*/\n",
  "sourcePath": "/home/unseen/Blockchain/Leave-Management-System/contracts/Leave.sol",
  "compiler": {
    "name": "solc",
    "version": "0.5.0+commit.1d4f565a.Emscripten.clang"
  },
  "schemaVersion": "3.0.1",
  "updatedAt": "2019-02-12T11:19:53.229Z",
  "devdoc": {
    "methods": {}
  },
  "userdoc": {
    "methods": {}
  }
}